{
  "contractName": "BikeContract",
  "abi": [
    {
      "anonymous": false,
      "inputs": [
        {
          "indexed": false,
          "internalType": "uint256",
          "name": "bikeID",
          "type": "uint256"
        },
        {
          "indexed": false,
          "internalType": "uint256",
          "name": "regDate",
          "type": "uint256"
        },
        {
          "indexed": false,
          "internalType": "string",
          "name": "make",
          "type": "string"
        },
        {
          "indexed": false,
          "internalType": "string",
          "name": "model",
          "type": "string"
        },
        {
          "indexed": false,
          "internalType": "string",
          "name": "frame",
          "type": "string"
        },
        {
          "indexed": false,
          "internalType": "string",
          "name": "details",
          "type": "string"
        }
      ],
      "name": "BikeCreated",
      "type": "event"
    },
    {
      "anonymous": false,
      "inputs": [
        {
          "indexed": false,
          "internalType": "uint256",
          "name": "ownerID",
          "type": "uint256"
        },
        {
          "indexed": false,
          "internalType": "string",
          "name": "name",
          "type": "string"
        },
        {
          "indexed": false,
          "internalType": "string",
          "name": "email",
          "type": "string"
        }
      ],
      "name": "OwnerAdded",
      "type": "event"
    },
    {
      "anonymous": false,
      "inputs": [
        {
          "indexed": false,
          "internalType": "uint256",
          "name": "ownerID",
          "type": "uint256"
        },
        {
          "indexed": false,
          "internalType": "string",
          "name": "name",
          "type": "string"
        },
        {
          "indexed": false,
          "internalType": "string",
          "name": "email",
          "type": "string"
        }
      ],
      "name": "OwnerUpdated",
      "type": "event"
    },
    {
      "anonymous": false,
      "inputs": [
        {
          "indexed": false,
          "internalType": "uint256",
          "name": "id",
          "type": "uint256"
        },
        {
          "indexed": false,
          "internalType": "string",
          "name": "details",
          "type": "string"
        }
      ],
      "name": "detailsAdded",
      "type": "event"
    },
    {
      "anonymous": false,
      "inputs": [
        {
          "indexed": false,
          "internalType": "uint256",
          "name": "id",
          "type": "uint256"
        },
        {
          "indexed": false,
          "internalType": "address",
          "name": "user_address",
          "type": "address"
        }
      ],
      "name": "renounceDone",
      "type": "event"
    },
    {
      "anonymous": false,
      "inputs": [
        {
          "indexed": false,
          "internalType": "uint256",
          "name": "ownerID",
          "type": "uint256"
        },
        {
          "indexed": false,
          "internalType": "address",
          "name": "user_address",
          "type": "address"
        }
      ],
      "name": "transferDone",
      "type": "event"
    },
    {
      "inputs": [
        {
          "internalType": "uint256",
          "name": "",
          "type": "uint256"
        }
      ],
      "name": "bikes",
      "outputs": [
        {
          "internalType": "uint256",
          "name": "bikeID",
          "type": "uint256"
        },
        {
          "internalType": "uint256",
          "name": "regDate",
          "type": "uint256"
        },
        {
          "internalType": "string",
          "name": "make",
          "type": "string"
        },
        {
          "internalType": "string",
          "name": "model",
          "type": "string"
        },
        {
          "internalType": "string",
          "name": "frame",
          "type": "string"
        },
        {
          "internalType": "string",
          "name": "details",
          "type": "string"
        },
        {
          "internalType": "address",
          "name": "user_address",
          "type": "address"
        }
      ],
      "stateMutability": "view",
      "type": "function",
      "constant": true
    },
    {
      "inputs": [
        {
          "internalType": "uint256",
          "name": "",
          "type": "uint256"
        }
      ],
      "name": "owner",
      "outputs": [
        {
          "internalType": "uint256",
          "name": "ownerID",
          "type": "uint256"
        },
        {
          "internalType": "string",
          "name": "name",
          "type": "string"
        },
        {
          "internalType": "string",
          "name": "email",
          "type": "string"
        }
      ],
      "stateMutability": "view",
      "type": "function",
      "constant": true
    },
    {
      "inputs": [
        {
          "internalType": "string",
          "name": "_make",
          "type": "string"
        },
        {
          "internalType": "string",
          "name": "_model",
          "type": "string"
        },
        {
          "internalType": "string",
          "name": "_frame",
          "type": "string"
        },
        {
          "internalType": "string",
          "name": "_details",
          "type": "string"
        },
        {
          "internalType": "string",
          "name": "_name",
          "type": "string"
        },
        {
          "internalType": "string",
          "name": "_email",
          "type": "string"
        }
      ],
      "name": "newBike",
      "outputs": [],
      "stateMutability": "nonpayable",
      "type": "function"
    },
    {
      "inputs": [],
      "name": "showListBikeDetails",
      "outputs": [
        {
          "components": [
            {
              "internalType": "uint256",
              "name": "bikeID",
              "type": "uint256"
            },
            {
              "internalType": "uint256",
              "name": "regDate",
              "type": "uint256"
            },
            {
              "internalType": "string",
              "name": "make",
              "type": "string"
            },
            {
              "internalType": "string",
              "name": "model",
              "type": "string"
            },
            {
              "internalType": "string",
              "name": "frame",
              "type": "string"
            },
            {
              "internalType": "string",
              "name": "details",
              "type": "string"
            },
            {
              "internalType": "address",
              "name": "user_address",
              "type": "address"
            }
          ],
          "internalType": "struct BikeContract.bikeDetails[]",
          "name": "",
          "type": "tuple[]"
        }
      ],
      "stateMutability": "view",
      "type": "function",
      "constant": true
    },
    {
      "inputs": [
        {
          "internalType": "uint256",
          "name": "_bikeID",
          "type": "uint256"
        }
      ],
      "name": "showBikeDetails",
      "outputs": [
        {
          "internalType": "uint256",
          "name": "",
          "type": "uint256"
        },
        {
          "internalType": "string",
          "name": "",
          "type": "string"
        },
        {
          "internalType": "string",
          "name": "",
          "type": "string"
        },
        {
          "internalType": "string",
          "name": "",
          "type": "string"
        },
        {
          "internalType": "string",
          "name": "",
          "type": "string"
        }
      ],
      "stateMutability": "view",
      "type": "function",
      "constant": true
    },
    {
      "inputs": [
        {
          "internalType": "uint256",
          "name": "_ownerID",
          "type": "uint256"
        },
        {
          "internalType": "string",
          "name": "_name",
          "type": "string"
        },
        {
          "internalType": "string",
          "name": "_email",
          "type": "string"
        }
      ],
      "name": "updateOwner",
      "outputs": [],
      "stateMutability": "nonpayable",
      "type": "function"
    },
    {
      "inputs": [],
      "name": "showListOwnerDetails",
      "outputs": [
        {
          "components": [
            {
              "internalType": "uint256",
              "name": "ownerID",
              "type": "uint256"
            },
            {
              "internalType": "string",
              "name": "name",
              "type": "string"
            },
            {
              "internalType": "string",
              "name": "email",
              "type": "string"
            }
          ],
          "internalType": "struct BikeContract.ownerDetails[]",
          "name": "",
          "type": "tuple[]"
        }
      ],
      "stateMutability": "view",
      "type": "function",
      "constant": true
    },
    {
      "inputs": [
        {
          "internalType": "uint256",
          "name": "_ownerID",
          "type": "uint256"
        }
      ],
      "name": "showOwnerDetails",
      "outputs": [
        {
          "internalType": "string",
          "name": "",
          "type": "string"
        },
        {
          "internalType": "string",
          "name": "",
          "type": "string"
        }
      ],
      "stateMutability": "view",
      "type": "function",
      "constant": true
    },
    {
      "inputs": [
        {
          "internalType": "uint256",
          "name": "_id",
          "type": "uint256"
        },
        {
          "internalType": "string",
          "name": "_details",
          "type": "string"
        }
      ],
      "name": "addDetails",
      "outputs": [],
      "stateMutability": "nonpayable",
      "type": "function"
    },
    {
      "inputs": [
        {
          "internalType": "uint256",
          "name": "_id",
          "type": "uint256"
        },
        {
          "internalType": "address",
          "name": "_newAddress",
          "type": "address"
        }
      ],
      "name": "transferOwnership",
      "outputs": [],
      "stateMutability": "nonpayable",
      "type": "function"
    },
    {
      "inputs": [
        {
          "internalType": "uint256",
          "name": "_id",
          "type": "uint256"
        }
      ],
      "name": "renounceOwnership",
      "outputs": [],
      "stateMutability": "nonpayable",
      "type": "function"
    }
  ],
  "bytecode": "0x60806040526000805560006001556000600260006101000a81548173ffffffffffffffffffffffffffffffffffffffff021916908373ffffffffffffffffffffffffffffffffffffffff16021790555034801561005b57600080fd5b5061254d8061006b6000396000f3fe608060405234801561001057600080fd5b50600436106100a95760003560e01c80636ec2361d116100715780636ec2361d146101565780637cd0520c1461018a5780637d654c7f146101bb5780638b284a85146101d7578063a123c33e146101f3578063dd79910914610225576100a9565b806309ee2e95146100ae578063142ec2e2146100cc57806329507f73146100e8578063472edcd0146101045780635c526e1914610120575b600080fd5b6100b6610243565b6040516100c39190611e51565b60405180910390f35b6100e660048036038101906100e19190611867565b61047d565b005b61010260048036038101906100fd91906119a9565b6106ec565b005b61011e600480360381019061011991906119e5565b61077e565b005b61013a60048036038101906101359190611980565b6107e6565b60405161014d97969594939291906120d4565b60405180910390f35b610170600480360381019061016b9190611980565b610a68565b604051610181959493929190611fe8565b60405180910390f35b6101a4600480360381019061019f9190611980565b610d22565b6040516101b2929190611e73565b60405180910390f35b6101d560048036038101906101d09190611980565b610e72565b005b6101f160048036038101906101ec9190611a39565b610f47565b005b61020d60048036038101906102089190611980565b611069565b60405161021c93929190611fa3565b60405180910390f35b61022d6111a3565b60405161023a9190611e2f565b60405180910390f35b6060600060015467ffffffffffffffff811115610289577f4e487b7100000000000000000000000000000000000000000000000000000000600052604160045260246000fd5b6040519080825280602002602001820160405280156102c257816020015b6102af6116be565b8152602001906001900390816102a75790505b50905060005b60015481101561047557600460008281526020019081526020016000206040518060600160405290816000820154815260200160018201805461030a906122d2565b80601f0160208091040260200160405190810160405280929190818152602001828054610336906122d2565b80156103835780601f1061035857610100808354040283529160200191610383565b820191906000526020600020905b81548152906001019060200180831161036657829003601f168201915b5050505050815260200160028201805461039c906122d2565b80601f01602080910402602001604051908101604052809291908181526020018280546103c8906122d2565b80156104155780601f106103ea57610100808354040283529160200191610415565b820191906000526020600020905b8154815290600101906020018083116103f857829003601f168201915b505050505081525050828281518110610457577f4e487b7100000000000000000000000000000000000000000000000000000000600052603260045260246000fd5b6020026020010181905250808061046d90612335565b9150506102c8565b508091505090565b85858560008351116104c4576040517f08c379a00000000000000000000000000000000000000000000000000000000081526004016104bb90611eea565b60405180910390fd5b6000825111610508576040517f08c379a00000000000000000000000000000000000000000000000000000000081526004016104ff90611eaa565b60405180910390fd5b600081511161054c576040517f08c379a000000000000000000000000000000000000000000000000000000000815260040161054390611f2a565b60405180910390fd5b6040518060e0016040528060005481526020014281526020018a81526020018981526020018881526020018781526020013373ffffffffffffffffffffffffffffffffffffffff168152506003600080548152602001908152602001600020600082015181600001556020820151816001015560408201518160020190805190602001906105db9291906116df565b5060608201518160030190805190602001906105f89291906116df565b5060808201518160040190805190602001906106159291906116df565b5060a08201518160050190805190602001906106329291906116df565b5060c08201518160060160006101000a81548173ffffffffffffffffffffffffffffffffffffffff021916908373ffffffffffffffffffffffffffffffffffffffff16021790555090505060008081548092919061068f90612335565b91905055507f1c18a105ec0584e2a9deebcf7f7ccfd5c6250514e3c005cdea119db37793440c600054428b8b8b8b6040516106cf96959493929190612057565b60405180910390a16106e18585611560565b505050505050505050565b806003600084815260200190815260200160002060060160006101000a81548173ffffffffffffffffffffffffffffffffffffffff021916908373ffffffffffffffffffffffffffffffffffffffff1602179055507fbc3216e66db8f3040eeaf4c46c18258bd0e6219c0e4c3a741caa1330e3224c2c8282604051610772929190611f4a565b60405180910390a15050565b806003600084815260200190815260200160002060050190805190602001906107a89291906116df565b507f4c35ce06554f93a70249e87c31dd8b29b9d2a86eaa4afd6aa25648c614380ffb82826040516107da929190611f73565b60405180910390a15050565b6003602052806000526040600020600091509050806000015490806001015490806002018054610815906122d2565b80601f0160208091040260200160405190810160405280929190818152602001828054610841906122d2565b801561088e5780601f106108635761010080835404028352916020019161088e565b820191906000526020600020905b81548152906001019060200180831161087157829003601f168201915b5050505050908060030180546108a3906122d2565b80601f01602080910402602001604051908101604052809291908181526020018280546108cf906122d2565b801561091c5780601f106108f15761010080835404028352916020019161091c565b820191906000526020600020905b8154815290600101906020018083116108ff57829003601f168201915b505050505090806004018054610931906122d2565b80601f016020809104026020016040519081016040528092919081815260200182805461095d906122d2565b80156109aa5780601f1061097f576101008083540402835291602001916109aa565b820191906000526020600020905b81548152906001019060200180831161098d57829003601f168201915b5050505050908060050180546109bf906122d2565b80601f01602080910402602001604051908101604052809291908181526020018280546109eb906122d2565b8015610a385780601f10610a0d57610100808354040283529160200191610a38565b820191906000526020600020905b815481529060010190602001808311610a1b57829003601f168201915b5050505050908060060160009054906101000a900473ffffffffffffffffffffffffffffffffffffffff16905087565b600060608060608060036000878152602001908152602001600020600101546003600088815260200190815260200160002060020160036000898152602001908152602001600020600301600360008a8152602001908152602001600020600401600360008b8152602001908152602001600020600501838054610aeb906122d2565b80601f0160208091040260200160405190810160405280929190818152602001828054610b17906122d2565b8015610b645780601f10610b3957610100808354040283529160200191610b64565b820191906000526020600020905b815481529060010190602001808311610b4757829003601f168201915b50505050509350828054610b77906122d2565b80601f0160208091040260200160405190810160405280929190818152602001828054610ba3906122d2565b8015610bf05780601f10610bc557610100808354040283529160200191610bf0565b820191906000526020600020905b815481529060010190602001808311610bd357829003601f168201915b50505050509250818054610c03906122d2565b80601f0160208091040260200160405190810160405280929190818152602001828054610c2f906122d2565b8015610c7c5780601f10610c5157610100808354040283529160200191610c7c565b820191906000526020600020905b815481529060010190602001808311610c5f57829003601f168201915b50505050509150808054610c8f906122d2565b80601f0160208091040260200160405190810160405280929190818152602001828054610cbb906122d2565b8015610d085780601f10610cdd57610100808354040283529160200191610d08565b820191906000526020600020905b815481529060010190602001808311610ceb57829003601f168201915b505050505090509450945094509450945091939590929450565b6060806004600084815260200190815260200160002060010160046000858152602001908152602001600020600201818054610d5d906122d2565b80601f0160208091040260200160405190810160405280929190818152602001828054610d89906122d2565b8015610dd65780601f10610dab57610100808354040283529160200191610dd6565b820191906000526020600020905b815481529060010190602001808311610db957829003601f168201915b50505050509150808054610de9906122d2565b80601f0160208091040260200160405190810160405280929190818152602001828054610e15906122d2565b8015610e625780601f10610e3757610100808354040283529160200191610e62565b820191906000526020600020905b815481529060010190602001808311610e4557829003601f168201915b5050505050905091509150915091565b600260009054906101000a900473ffffffffffffffffffffffffffffffffffffffff166003600083815260200190815260200160002060060160006101000a81548173ffffffffffffffffffffffffffffffffffffffff021916908373ffffffffffffffffffffffffffffffffffffffff1602179055507f7e772827f3f971b68b17586556bbcce227851f8ece0c5fafc9d2c8d64c34ec4581600260009054906101000a900473ffffffffffffffffffffffffffffffffffffffff16604051610f3c929190611f4a565b60405180910390a150565b81816000825111610f8d576040517f08c379a0000000000000000000000000000000000000000000000000000000008152600401610f8490611f0a565b60405180910390fd5b6000815111610fd1576040517f08c379a0000000000000000000000000000000000000000000000000000000008152600401610fc890611eca565b60405180910390fd5b83600460008781526020019081526020016000206001019080519060200190610ffb9291906116df565b50826004600087815260200190815260200160002060020190805190602001906110269291906116df565b507f4ae7dc27b19a98a7c90893edc6b1cf2de7a50246cfc00ae8521d2a2aa375c50c85858560405161105a93929190611fa3565b60405180910390a15050505050565b6004602052806000526040600020600091509050806000015490806001018054611092906122d2565b80601f01602080910402602001604051908101604052809291908181526020018280546110be906122d2565b801561110b5780601f106110e05761010080835404028352916020019161110b565b820191906000526020600020905b8154815290600101906020018083116110ee57829003601f168201915b505050505090806002018054611120906122d2565b80601f016020809104026020016040519081016040528092919081815260200182805461114c906122d2565b80156111995780601f1061116e57610100808354040283529160200191611199565b820191906000526020600020905b81548152906001019060200180831161117c57829003601f168201915b5050505050905083565b60606000805467ffffffffffffffff8111156111e8577f4e487b7100000000000000000000000000000000000000000000000000000000600052604160045260246000fd5b60405190808252806020026020018201604052801561122157816020015b61120e611765565b8152602001906001900390816112065790505b50905060005b60005481101561155857600360008281526020019081526020016000206040518060e00160405290816000820154815260200160018201548152602001600282018054611273906122d2565b80601f016020809104026020016040519081016040528092919081815260200182805461129f906122d2565b80156112ec5780601f106112c1576101008083540402835291602001916112ec565b820191906000526020600020905b8154815290600101906020018083116112cf57829003601f168201915b50505050508152602001600382018054611305906122d2565b80601f0160208091040260200160405190810160405280929190818152602001828054611331906122d2565b801561137e5780601f106113535761010080835404028352916020019161137e565b820191906000526020600020905b81548152906001019060200180831161136157829003601f168201915b50505050508152602001600482018054611397906122d2565b80601f01602080910402602001604051908101604052809291908181526020018280546113c3906122d2565b80156114105780601f106113e557610100808354040283529160200191611410565b820191906000526020600020905b8154815290600101906020018083116113f357829003601f168201915b50505050508152602001600582018054611429906122d2565b80601f0160208091040260200160405190810160405280929190818152602001828054611455906122d2565b80156114a25780601f10611477576101008083540402835291602001916114a2565b820191906000526020600020905b81548152906001019060200180831161148557829003601f168201915b505050505081526020016006820160009054906101000a900473ffffffffffffffffffffffffffffffffffffffff1673ffffffffffffffffffffffffffffffffffffffff1673ffffffffffffffffffffffffffffffffffffffff168152505082828151811061153a577f4e487b7100000000000000000000000000000000000000000000000000000000600052603260045260246000fd5b6020026020010181905250808061155090612335565b915050611227565b508091505090565b818160008251116115a6576040517f08c379a000000000000000000000000000000000000000000000000000000000815260040161159d90611f0a565b60405180910390fd5b60008151116115ea576040517f08c379a00000000000000000000000000000000000000000000000000000000081526004016115e190611eca565b60405180910390fd5b60405180606001604052806000548152602001858152602001848152506004600060015481526020019081526020016000206000820151816000015560208201518160010190805190602001906116429291906116df565b50604082015181600201908051906020019061165f9291906116df565b509050506001600081548092919061167690612335565b91905055507fd7507c7b4570e3b0d6255af12a112134104969ddd270d9f9dd8cb5242873504860005485856040516116b093929190611fa3565b60405180910390a150505050565b60405180606001604052806000815260200160608152602001606081525090565b8280546116eb906122d2565b90600052602060002090601f01602090048101928261170d5760008555611754565b82601f1061172657805160ff1916838001178555611754565b82800160010185558215611754579182015b82811115611753578251825591602001919060010190611738565b5b50905061176191906117b8565b5090565b6040518060e00160405280600081526020016000815260200160608152602001606081526020016060815260200160608152602001600073ffffffffffffffffffffffffffffffffffffffff1681525090565b5b808211156117d15760008160009055506001016117b9565b5090565b60006117e86117e384612184565b61215f565b90508281526020810184848401111561180057600080fd5b61180b848285612290565b509392505050565b600081359050611822816124e9565b92915050565b600082601f83011261183957600080fd5b81356118498482602086016117d5565b91505092915050565b60008135905061186181612500565b92915050565b60008060008060008060c0878903121561188057600080fd5b600087013567ffffffffffffffff81111561189a57600080fd5b6118a689828a01611828565b965050602087013567ffffffffffffffff8111156118c357600080fd5b6118cf89828a01611828565b955050604087013567ffffffffffffffff8111156118ec57600080fd5b6118f889828a01611828565b945050606087013567ffffffffffffffff81111561191557600080fd5b61192189828a01611828565b935050608087013567ffffffffffffffff81111561193e57600080fd5b61194a89828a01611828565b92505060a087013567ffffffffffffffff81111561196757600080fd5b61197389828a01611828565b9150509295509295509295565b60006020828403121561199257600080fd5b60006119a084828501611852565b91505092915050565b600080604083850312156119bc57600080fd5b60006119ca85828601611852565b92505060206119db85828601611813565b9150509250929050565b600080604083850312156119f857600080fd5b6000611a0685828601611852565b925050602083013567ffffffffffffffff811115611a2357600080fd5b611a2f85828601611828565b9150509250929050565b600080600060608486031215611a4e57600080fd5b6000611a5c86828701611852565b935050602084013567ffffffffffffffff811115611a7957600080fd5b611a8586828701611828565b925050604084013567ffffffffffffffff811115611aa257600080fd5b611aae86828701611828565b9150509250925092565b6000611ac48383611d09565b905092915050565b6000611ad88383611dba565b905092915050565b611ae981612254565b82525050565b611af881612254565b82525050565b6000611b09826121d5565b611b138185612210565b935083602082028501611b25856121b5565b8060005b85811015611b615784840389528151611b428582611ab8565b9450611b4d836121f6565b925060208a01995050600181019050611b29565b50829750879550505050505092915050565b6000611b7e826121e0565b611b888185612221565b935083602082028501611b9a856121c5565b8060005b85811015611bd65784840389528151611bb78582611acc565b9450611bc283612203565b925060208a01995050600181019050611b9e565b50829750879550505050505092915050565b6000611bf3826121eb565b611bfd8185612232565b9350611c0d81856020860161229f565b611c168161240b565b840191505092915050565b6000611c2c826121eb565b611c368185612243565b9350611c4681856020860161229f565b611c4f8161240b565b840191505092915050565b6000611c67601b83612243565b9150611c728261241c565b602082019050919050565b6000611c8a601b83612243565b9150611c9582612445565b602082019050919050565b6000611cad601a83612243565b9150611cb88261246e565b602082019050919050565b6000611cd0601a83612243565b9150611cdb82612497565b602082019050919050565b6000611cf3601b83612243565b9150611cfe826124c0565b602082019050919050565b600060e083016000830151611d216000860182611e11565b506020830151611d346020860182611e11565b5060408301518482036040860152611d4c8282611be8565b91505060608301518482036060860152611d668282611be8565b91505060808301518482036080860152611d808282611be8565b91505060a083015184820360a0860152611d9a8282611be8565b91505060c0830151611daf60c0860182611ae0565b508091505092915050565b6000606083016000830151611dd26000860182611e11565b5060208301518482036020860152611dea8282611be8565b91505060408301518482036040860152611e048282611be8565b9150508091505092915050565b611e1a81612286565b82525050565b611e2981612286565b82525050565b60006020820190508181036000830152611e498184611afe565b905092915050565b60006020820190508181036000830152611e6b8184611b73565b905092915050565b60006040820190508181036000830152611e8d8185611c21565b90508181036020830152611ea18184611c21565b90509392505050565b60006020820190508181036000830152611ec381611c5a565b9050919050565b60006020820190508181036000830152611ee381611c7d565b9050919050565b60006020820190508181036000830152611f0381611ca0565b9050919050565b60006020820190508181036000830152611f2381611cc3565b9050919050565b60006020820190508181036000830152611f4381611ce6565b9050919050565b6000604082019050611f5f6000830185611e20565b611f6c6020830184611aef565b9392505050565b6000604082019050611f886000830185611e20565b8181036020830152611f9a8184611c21565b90509392505050565b6000606082019050611fb86000830186611e20565b8181036020830152611fca8185611c21565b90508181036040830152611fde8184611c21565b9050949350505050565b600060a082019050611ffd6000830188611e20565b818103602083015261200f8187611c21565b905081810360408301526120238186611c21565b905081810360608301526120378185611c21565b9050818103608083015261204b8184611c21565b90509695505050505050565b600060c08201905061206c6000830189611e20565b6120796020830188611e20565b818103604083015261208b8187611c21565b9050818103606083015261209f8186611c21565b905081810360808301526120b38185611c21565b905081810360a08301526120c78184611c21565b9050979650505050505050565b600060e0820190506120e9600083018a611e20565b6120f66020830189611e20565b81810360408301526121088188611c21565b9050818103606083015261211c8187611c21565b905081810360808301526121308186611c21565b905081810360a08301526121448185611c21565b905061215360c0830184611aef565b98975050505050505050565b600061216961217a565b90506121758282612304565b919050565b6000604051905090565b600067ffffffffffffffff82111561219f5761219e6123dc565b5b6121a88261240b565b9050602081019050919050565b6000819050602082019050919050565b6000819050602082019050919050565b600081519050919050565b600081519050919050565b600081519050919050565b6000602082019050919050565b6000602082019050919050565b600082825260208201905092915050565b600082825260208201905092915050565b600082825260208201905092915050565b600082825260208201905092915050565b600061225f82612266565b9050919050565b600073ffffffffffffffffffffffffffffffffffffffff82169050919050565b6000819050919050565b82818337600083830152505050565b60005b838110156122bd5780820151818401526020810190506122a2565b838111156122cc576000848401525b50505050565b600060028204905060018216806122ea57607f821691505b602082108114156122fe576122fd6123ad565b5b50919050565b61230d8261240b565b810181811067ffffffffffffffff8211171561232c5761232b6123dc565b5b80604052505050565b600061234082612286565b91507fffffffffffffffffffffffffffffffffffffffffffffffffffffffffffffffff8214156123735761237261237e565b5b600182019050919050565b7f4e487b7100000000000000000000000000000000000000000000000000000000600052601160045260246000fd5b7f4e487b7100000000000000000000000000000000000000000000000000000000600052602260045260246000fd5b7f4e487b7100000000000000000000000000000000000000000000000000000000600052604160045260246000fd5b6000601f19601f8301169050919050565b7f284d6f64656c293a204d757374206e6f7420626520656d7074792e0000000000600082015250565b7f28456d61696c293a204d757374206e6f7420626520656d7074792e0000000000600082015250565b7f284d616b65293a204d757374206e6f7420626520656d7074792e000000000000600082015250565b7f284e616d65293a204d757374206e6f7420626520656d7074792e000000000000600082015250565b7f284672616d65293a204d757374206e6f7420626520656d7074792e0000000000600082015250565b6124f281612254565b81146124fd57600080fd5b50565b61250981612286565b811461251457600080fd5b5056fea26469706673582212208a7eee7e82019f8257595de2a67bee86ddf99fe6a8fc359585e15171a203348764736f6c63430008040033",
  "immutableReferences": {},
  "source": "// SPDX-License-Identifier: MIT\npragma solidity ^0.8.4;\npragma experimental ABIEncoderV2;\n\ncontract BikeContract {\n    uint256 private bikeCounter = 0;\n    uint256 private ownerCounter = 0;\n    address private emptyAddress = 0x0000000000000000000000000000000000000000;\n\n    struct bikeDetails {\n        uint256 bikeID;\n        uint256 regDate;\n        string make;\n        string model;\n        string frame;\n        string details;\n        address user_address;\n    }\n\n    struct ownerDetails {\n        uint256 ownerID;\n        string name;\n        string email;\n    }\n\n    mapping(uint256 => bikeDetails) public bikes;\n\n    mapping(uint256 => ownerDetails) public owner;\n\n    event BikeCreated(\n        uint256 bikeID,\n        uint256 regDate,\n        string make,\n        string model,\n        string frame,\n        string details\n    );\n\n    event OwnerAdded(uint256 ownerID, string name, string email);\n\n    event OwnerUpdated(uint256 ownerID, string name, string email);\n\n    event detailsAdded(uint256 id, string details);\n\n    event transferDone(uint256 ownerID, address user_address);\n\n    event renounceDone(uint256 id, address user_address);\n\n    // modifier functions that is executed before rest of code\n    // it validates fields (make, model and frame) are not empty\n    modifier emptyBikeString(\n        string memory _make,\n        string memory _model,\n        string memory _frame\n    ) {\n        require(bytes(_make).length > 0, \"(Make): Must not be empty.\");\n        require(bytes(_model).length > 0, \"(Model): Must not be empty.\");\n        require(bytes(_frame).length > 0, \"(Frame): Must not be empty.\");\n        _;\n    }\n\n    // modifier functions that is executed before rest of code\n    // it validates fields (name and email) are not empty\n    modifier emptyOwnerString(string memory _name, string memory _email) {\n        require(bytes(_name).length > 0, \"(Name): Must not be empty.\");\n        require(bytes(_email).length > 0, \"(Email): Must not be empty.\");\n        _;\n    }\n\n    /* Bike functions */\n\n    function newBike(\n        string memory _make,\n        string memory _model,\n        string memory _frame,\n        string memory _details,\n        string memory _name,\n        string memory _email\n    ) public emptyBikeString(_make, _model, _frame) {\n        bikes[bikeCounter] = bikeDetails(\n            bikeCounter,\n            block.timestamp,\n            _make,\n            _model,\n            _frame,\n            _details,\n            msg.sender\n        );\n        bikeCounter++;\n        emit BikeCreated(bikeCounter, block.timestamp, _make, _model, _frame, _details);\n        _newOwner(_name, _email);\n    }\n\n    function showListBikeDetails() public view returns (bikeDetails[] memory) {\n        bikeDetails[] memory _bikes = new bikeDetails[](bikeCounter);\n        for (uint256 i = 0; i < bikeCounter; i++) {\n            _bikes[i] = bikes[i];\n        }\n        return _bikes;\n    }\n\n    function showBikeDetails(uint256 _bikeID)\n        public\n        view\n        returns (\n            uint256,\n            string memory,\n            string memory,\n            string memory,\n            string memory\n        )\n    {\n        return (\n            bikes[_bikeID].regDate,\n            bikes[_bikeID].make,\n            bikes[_bikeID].model,\n            bikes[_bikeID].frame,\n            bikes[_bikeID].details\n        );\n    }\n\n    /* Owner functions */\n\n    function _newOwner(string memory _name, string memory _email)\n        private\n        emptyOwnerString(_name, _email)\n    {\n        owner[ownerCounter] = ownerDetails(bikeCounter, _name, _email);\n        ownerCounter++;\n        emit OwnerAdded(bikeCounter, _name, _email);\n    }\n\n    function updateOwner(\n        uint256 _ownerID,\n        string memory _name,\n        string memory _email\n    ) public emptyOwnerString(_name, _email) {\n        owner[_ownerID].name = _name;\n        owner[_ownerID].email = _email;\n        emit OwnerUpdated(_ownerID, _name, _email);\n    }\n\n    function showListOwnerDetails()\n        public\n        view\n        returns (ownerDetails[] memory)\n    {\n        ownerDetails[] memory _owner = new ownerDetails[](ownerCounter);\n        for (uint256 i = 0; i < ownerCounter; i++) {\n            _owner[i] = owner[i];\n        }\n        return _owner;\n    }\n\n    function showOwnerDetails(uint256 _ownerID)\n        public\n        view\n        returns (string memory, string memory)\n    {\n        return (owner[_ownerID].name, owner[_ownerID].email);\n    }\n\n    /* Other functions */\n\n    function addDetails(uint256 _id, string memory _details) public {\n        bikes[_id].details = _details;\n        emit detailsAdded(_id, _details);\n    }\n\n    function transferOwnership(uint256 _id, address _newAddress) public {\n        bikes[_id].user_address = _newAddress;\n        emit transferDone(_id, _newAddress);\n    }\n\n    function renounceOwnership(uint256 _id) public {\n        bikes[_id].user_address = emptyAddress;\n        emit renounceDone(_id, emptyAddress);\n    }\n}\n",
  "sourcePath": "C:/Users/Enrico/Desktop/Projects/x20132484_HDBC_SEPOL_PROJECT/contracts/BikeContract.sol",
  "compiler": {
    "name": "solc",
    "version": "0.8.4+commit.c7e474f2.Emscripten.clang"
  },
  "schemaVersion": "3.4.1",
  "updatedAt": "2021-07-27T12:00:12.175Z",
  "networkType": "ethereum",
  "devdoc": {
    "kind": "dev",
    "methods": {},
    "version": 1
  },
  "userdoc": {
    "kind": "user",
    "methods": {},
    "version": 1
  }
}