{
  "contractName": "BikeContract",
  "abi": [
    {
      "anonymous": false,
      "inputs": [
        {
          "indexed": false,
          "internalType": "uint256",
          "name": "bikeID",
          "type": "uint256"
        },
        {
          "indexed": false,
          "internalType": "string",
          "name": "make",
          "type": "string"
        },
        {
          "indexed": false,
          "internalType": "string",
          "name": "model",
          "type": "string"
        },
        {
          "indexed": false,
          "internalType": "string",
          "name": "colour",
          "type": "string"
        },
        {
          "indexed": false,
          "internalType": "string",
          "name": "typeBike",
          "type": "string"
        },
        {
          "indexed": false,
          "internalType": "string",
          "name": "frame_no",
          "type": "string"
        },
        {
          "indexed": false,
          "internalType": "string",
          "name": "details",
          "type": "string"
        }
      ],
      "name": "BikeCreated",
      "type": "event"
    },
    {
      "anonymous": false,
      "inputs": [
        {
          "indexed": false,
          "internalType": "uint256",
          "name": "ownerID",
          "type": "uint256"
        },
        {
          "indexed": false,
          "internalType": "string",
          "name": "name",
          "type": "string"
        },
        {
          "indexed": false,
          "internalType": "string",
          "name": "contact_no",
          "type": "string"
        },
        {
          "indexed": false,
          "internalType": "string",
          "name": "email",
          "type": "string"
        }
      ],
      "name": "OwnerAdded",
      "type": "event"
    },
    {
      "anonymous": false,
      "inputs": [
        {
          "indexed": false,
          "internalType": "string",
          "name": "details",
          "type": "string"
        }
      ],
      "name": "detailsAdded",
      "type": "event"
    },
    {
      "anonymous": false,
      "inputs": [
        {
          "indexed": false,
          "internalType": "address",
          "name": "user_address",
          "type": "address"
        }
      ],
      "name": "renounceDone",
      "type": "event"
    },
    {
      "anonymous": false,
      "inputs": [
        {
          "indexed": false,
          "internalType": "uint256",
          "name": "ownerID",
          "type": "uint256"
        },
        {
          "indexed": false,
          "internalType": "string",
          "name": "name",
          "type": "string"
        },
        {
          "indexed": false,
          "internalType": "string",
          "name": "contact_no",
          "type": "string"
        },
        {
          "indexed": false,
          "internalType": "string",
          "name": "email",
          "type": "string"
        },
        {
          "indexed": false,
          "internalType": "address",
          "name": "user_address",
          "type": "address"
        }
      ],
      "name": "transferDone",
      "type": "event"
    },
    {
      "inputs": [],
      "name": "bikeCounter",
      "outputs": [
        {
          "internalType": "uint256",
          "name": "",
          "type": "uint256"
        }
      ],
      "stateMutability": "view",
      "type": "function"
    },
    {
      "inputs": [
        {
          "internalType": "uint256",
          "name": "",
          "type": "uint256"
        }
      ],
      "name": "bikes",
      "outputs": [
        {
          "internalType": "uint256",
          "name": "bikeID",
          "type": "uint256"
        },
        {
          "internalType": "string",
          "name": "make",
          "type": "string"
        },
        {
          "internalType": "string",
          "name": "model",
          "type": "string"
        },
        {
          "internalType": "string",
          "name": "colour",
          "type": "string"
        },
        {
          "internalType": "string",
          "name": "typeBike",
          "type": "string"
        },
        {
          "internalType": "string",
          "name": "frame_no",
          "type": "string"
        },
        {
          "internalType": "string",
          "name": "details",
          "type": "string"
        },
        {
          "internalType": "address",
          "name": "user_address",
          "type": "address"
        }
      ],
      "stateMutability": "view",
      "type": "function"
    },
    {
      "inputs": [],
      "name": "emptyAddress",
      "outputs": [
        {
          "internalType": "address",
          "name": "",
          "type": "address"
        }
      ],
      "stateMutability": "view",
      "type": "function"
    },
    {
      "inputs": [
        {
          "internalType": "uint256",
          "name": "",
          "type": "uint256"
        }
      ],
      "name": "owner",
      "outputs": [
        {
          "internalType": "uint256",
          "name": "ownerID",
          "type": "uint256"
        },
        {
          "internalType": "string",
          "name": "name",
          "type": "string"
        },
        {
          "internalType": "string",
          "name": "contact_no",
          "type": "string"
        },
        {
          "internalType": "string",
          "name": "email",
          "type": "string"
        },
        {
          "internalType": "address",
          "name": "user_address",
          "type": "address"
        }
      ],
      "stateMutability": "view",
      "type": "function"
    },
    {
      "inputs": [],
      "name": "ownerCounter",
      "outputs": [
        {
          "internalType": "uint256",
          "name": "",
          "type": "uint256"
        }
      ],
      "stateMutability": "view",
      "type": "function"
    },
    {
      "inputs": [
        {
          "internalType": "string",
          "name": "_make",
          "type": "string"
        },
        {
          "internalType": "string",
          "name": "_model",
          "type": "string"
        },
        {
          "internalType": "string",
          "name": "_colour",
          "type": "string"
        },
        {
          "internalType": "string",
          "name": "_type",
          "type": "string"
        },
        {
          "internalType": "string",
          "name": "_frame_no",
          "type": "string"
        },
        {
          "internalType": "string",
          "name": "_details",
          "type": "string"
        },
        {
          "internalType": "string",
          "name": "_name",
          "type": "string"
        },
        {
          "internalType": "string",
          "name": "_contact_no",
          "type": "string"
        },
        {
          "internalType": "string",
          "name": "_email",
          "type": "string"
        }
      ],
      "name": "newBikeSM",
      "outputs": [],
      "stateMutability": "nonpayable",
      "type": "function"
    },
    {
      "inputs": [],
      "name": "showListBikeDetails",
      "outputs": [
        {
          "components": [
            {
              "internalType": "uint256",
              "name": "bikeID",
              "type": "uint256"
            },
            {
              "internalType": "string",
              "name": "make",
              "type": "string"
            },
            {
              "internalType": "string",
              "name": "model",
              "type": "string"
            },
            {
              "internalType": "string",
              "name": "colour",
              "type": "string"
            },
            {
              "internalType": "string",
              "name": "typeBike",
              "type": "string"
            },
            {
              "internalType": "string",
              "name": "frame_no",
              "type": "string"
            },
            {
              "internalType": "string",
              "name": "details",
              "type": "string"
            },
            {
              "internalType": "address",
              "name": "user_address",
              "type": "address"
            }
          ],
          "internalType": "struct BikeContract.bikeDetails[]",
          "name": "",
          "type": "tuple[]"
        }
      ],
      "stateMutability": "view",
      "type": "function"
    },
    {
      "inputs": [],
      "name": "showOwnerDetails",
      "outputs": [
        {
          "components": [
            {
              "internalType": "uint256",
              "name": "ownerID",
              "type": "uint256"
            },
            {
              "internalType": "string",
              "name": "name",
              "type": "string"
            },
            {
              "internalType": "string",
              "name": "contact_no",
              "type": "string"
            },
            {
              "internalType": "string",
              "name": "email",
              "type": "string"
            },
            {
              "internalType": "address",
              "name": "user_address",
              "type": "address"
            }
          ],
          "internalType": "struct BikeContract.ownerDetails[]",
          "name": "",
          "type": "tuple[]"
        }
      ],
      "stateMutability": "view",
      "type": "function"
    },
    {
      "inputs": [
        {
          "internalType": "uint256",
          "name": "_id",
          "type": "uint256"
        },
        {
          "internalType": "string",
          "name": "_details",
          "type": "string"
        }
      ],
      "name": "addDetails",
      "outputs": [],
      "stateMutability": "nonpayable",
      "type": "function"
    },
    {
      "inputs": [
        {
          "internalType": "uint256",
          "name": "_id",
          "type": "uint256"
        },
        {
          "internalType": "string",
          "name": "_name",
          "type": "string"
        },
        {
          "internalType": "string",
          "name": "_contact_no",
          "type": "string"
        },
        {
          "internalType": "string",
          "name": "_email",
          "type": "string"
        },
        {
          "internalType": "address",
          "name": "_newAddress",
          "type": "address"
        }
      ],
      "name": "transferOwnership",
      "outputs": [],
      "stateMutability": "nonpayable",
      "type": "function"
    },
    {
      "inputs": [
        {
          "internalType": "uint256",
          "name": "_id",
          "type": "uint256"
        }
      ],
      "name": "renounceOwnership",
      "outputs": [],
      "stateMutability": "nonpayable",
      "type": "function"
    }
  ],
  "bytecode": "0x60806040526000805560006001556000600260006101000a81548173ffffffffffffffffffffffffffffffffffffffff021916908373ffffffffffffffffffffffffffffffffffffffff16021790555034801561005b57600080fd5b5061234a8061006b6000396000f3fe608060405234801561001057600080fd5b50600436106100a95760003560e01c80637d654c7f116100715780637d654c7f14610159578063a123c33e14610175578063dd799109146101a9578063f50d3d57146101c7578063f9a48031146101e3578063fbd1427c14610201576100a9565b8063032ca3d4146100ae57806330943fcf146100cc578063382f25a1146100ea578063472edcd0146101065780635c526e1914610122575b600080fd5b6100b661021f565b6040516100c39190611d8a565b60405180910390f35b6100d4610245565b6040516100e19190611e0b565b60405180910390f35b61010460048036038101906100ff9190611799565b61024b565b005b610120600480360381019061011b9190611960565b610425565b005b61013c60048036038101906101379190611937565b61048b565b604051610150989796959493929190611f81565b60405180910390f35b610173600480360381019061016e9190611937565b610823565b005b61018f600480360381019061018a9190611937565b6108f6565b6040516101a0959493929190611e80565b60405180910390f35b6101b1610ae4565b6040516101be9190611da5565b60405180910390f35b6101e160048036038101906101dc91906119b4565b610fbc565b005b6101eb611064565b6040516101f89190611e0b565b60405180910390f35b61020961106a565b6040516102169190611dc7565b60405180910390f35b600260009054906101000a900473ffffffffffffffffffffffffffffffffffffffff1681565b60015481565b60405180610100016040528060005481526020018a81526020018981526020018881526020018781526020018681526020018581526020013373ffffffffffffffffffffffffffffffffffffffff1681525060036000805481526020019081526020016000206000820151816000015560208201518160010190805190602001906102d79291906115c4565b5060408201518160020190805190602001906102f49291906115c4565b5060608201518160030190805190602001906103119291906115c4565b50608082015181600401908051906020019061032e9291906115c4565b5060a082015181600501908051906020019061034b9291906115c4565b5060c08201518160060190805190602001906103689291906115c4565b5060e08201518160070160006101000a81548173ffffffffffffffffffffffffffffffffffffffff021916908373ffffffffffffffffffffffffffffffffffffffff1602179055509050506000808154809291906103c5906121ff565b91905055507fa862898981bb615c94096b1af912a4d7558372e5eeb2e433c75529698bd28edc6000548a8a8a8a8a8a6040516104079796959493929190611ee8565b60405180910390a161041a83838361138c565b505050505050505050565b8060036000848152602001908152602001600020600601908051906020019061044f9291906115c4565b507f726982f645aa011c5b29c51ed4e248885b77a8e5c41e05f4fc1e50c8ee986fc98160405161047f9190611de9565b60405180910390a15050565b60036020528060005260406000206000915090508060000154908060010180546104b49061219c565b80601f01602080910402602001604051908101604052809291908181526020018280546104e09061219c565b801561052d5780601f106105025761010080835404028352916020019161052d565b820191906000526020600020905b81548152906001019060200180831161051057829003601f168201915b5050505050908060020180546105429061219c565b80601f016020809104026020016040519081016040528092919081815260200182805461056e9061219c565b80156105bb5780601f10610590576101008083540402835291602001916105bb565b820191906000526020600020905b81548152906001019060200180831161059e57829003601f168201915b5050505050908060030180546105d09061219c565b80601f01602080910402602001604051908101604052809291908181526020018280546105fc9061219c565b80156106495780601f1061061e57610100808354040283529160200191610649565b820191906000526020600020905b81548152906001019060200180831161062c57829003601f168201915b50505050509080600401805461065e9061219c565b80601f016020809104026020016040519081016040528092919081815260200182805461068a9061219c565b80156106d75780601f106106ac576101008083540402835291602001916106d7565b820191906000526020600020905b8154815290600101906020018083116106ba57829003601f168201915b5050505050908060050180546106ec9061219c565b80601f01602080910402602001604051908101604052809291908181526020018280546107189061219c565b80156107655780601f1061073a57610100808354040283529160200191610765565b820191906000526020600020905b81548152906001019060200180831161074857829003601f168201915b50505050509080600601805461077a9061219c565b80601f01602080910402602001604051908101604052809291908181526020018280546107a69061219c565b80156107f35780601f106107c8576101008083540402835291602001916107f3565b820191906000526020600020905b8154815290600101906020018083116107d657829003601f168201915b5050505050908060070160009054906101000a900473ffffffffffffffffffffffffffffffffffffffff16905088565b600260009054906101000a900473ffffffffffffffffffffffffffffffffffffffff166003600083815260200190815260200160002060070160006101000a81548173ffffffffffffffffffffffffffffffffffffffff021916908373ffffffffffffffffffffffffffffffffffffffff1602179055507f2ccd6c888cce49d87141ab0e9f17b17e7fd5ca376879d7d85db65ba47cc9acae600260009054906101000a900473ffffffffffffffffffffffffffffffffffffffff166040516108eb9190611d8a565b60405180910390a150565b600460205280600052604060002060009150905080600001549080600101805461091f9061219c565b80601f016020809104026020016040519081016040528092919081815260200182805461094b9061219c565b80156109985780601f1061096d57610100808354040283529160200191610998565b820191906000526020600020905b81548152906001019060200180831161097b57829003601f168201915b5050505050908060020180546109ad9061219c565b80601f01602080910402602001604051908101604052809291908181526020018280546109d99061219c565b8015610a265780601f106109fb57610100808354040283529160200191610a26565b820191906000526020600020905b815481529060010190602001808311610a0957829003601f168201915b505050505090806003018054610a3b9061219c565b80601f0160208091040260200160405190810160405280929190818152602001828054610a679061219c565b8015610ab45780601f10610a8957610100808354040283529160200191610ab4565b820191906000526020600020905b815481529060010190602001808311610a9757829003601f168201915b5050505050908060040160009054906101000a900473ffffffffffffffffffffffffffffffffffffffff16905085565b60606000805467ffffffffffffffff811115610b29577f4e487b7100000000000000000000000000000000000000000000000000000000600052604160045260246000fd5b604051908082528060200260200182016040528015610b6257816020015b610b4f61164a565b815260200190600190039081610b475790505b50905060005b600054811015610fb457600360008281526020019081526020016000206040518061010001604052908160008201548152602001600182018054610bab9061219c565b80601f0160208091040260200160405190810160405280929190818152602001828054610bd79061219c565b8015610c245780601f10610bf957610100808354040283529160200191610c24565b820191906000526020600020905b815481529060010190602001808311610c0757829003601f168201915b50505050508152602001600282018054610c3d9061219c565b80601f0160208091040260200160405190810160405280929190818152602001828054610c699061219c565b8015610cb65780601f10610c8b57610100808354040283529160200191610cb6565b820191906000526020600020905b815481529060010190602001808311610c9957829003601f168201915b50505050508152602001600382018054610ccf9061219c565b80601f0160208091040260200160405190810160405280929190818152602001828054610cfb9061219c565b8015610d485780601f10610d1d57610100808354040283529160200191610d48565b820191906000526020600020905b815481529060010190602001808311610d2b57829003601f168201915b50505050508152602001600482018054610d619061219c565b80601f0160208091040260200160405190810160405280929190818152602001828054610d8d9061219c565b8015610dda5780601f10610daf57610100808354040283529160200191610dda565b820191906000526020600020905b815481529060010190602001808311610dbd57829003601f168201915b50505050508152602001600582018054610df39061219c565b80601f0160208091040260200160405190810160405280929190818152602001828054610e1f9061219c565b8015610e6c5780601f10610e4157610100808354040283529160200191610e6c565b820191906000526020600020905b815481529060010190602001808311610e4f57829003601f168201915b50505050508152602001600682018054610e859061219c565b80601f0160208091040260200160405190810160405280929190818152602001828054610eb19061219c565b8015610efe5780601f10610ed357610100808354040283529160200191610efe565b820191906000526020600020905b815481529060010190602001808311610ee157829003601f168201915b505050505081526020016007820160009054906101000a900473ffffffffffffffffffffffffffffffffffffffff1673ffffffffffffffffffffffffffffffffffffffff1673ffffffffffffffffffffffffffffffffffffffff1681525050828281518110610f96577f4e487b7100000000000000000000000000000000000000000000000000000000600052603260045260246000fd5b60200260200101819052508080610fac906121ff565b915050610b68565b508091505090565b806003600087815260200190815260200160002060070160006101000a81548173ffffffffffffffffffffffffffffffffffffffff021916908373ffffffffffffffffffffffffffffffffffffffff16021790555061101e85858585856114e7565b7ffaa2e40b59be248c5aad70f1b16d7daaf9f48ed5b592531469657773d78271af8585858585604051611055959493929190611e80565b60405180910390a15050505050565b60005481565b6060600060015467ffffffffffffffff8111156110b0577f4e487b7100000000000000000000000000000000000000000000000000000000600052604160045260246000fd5b6040519080825280602002602001820160405280156110e957816020015b6110d66116a5565b8152602001906001900390816110ce5790505b50905060005b60015481101561138457600460008281526020019081526020016000206040518060a0016040529081600082015481526020016001820180546111319061219c565b80601f016020809104026020016040519081016040528092919081815260200182805461115d9061219c565b80156111aa5780601f1061117f576101008083540402835291602001916111aa565b820191906000526020600020905b81548152906001019060200180831161118d57829003601f168201915b505050505081526020016002820180546111c39061219c565b80601f01602080910402602001604051908101604052809291908181526020018280546111ef9061219c565b801561123c5780601f106112115761010080835404028352916020019161123c565b820191906000526020600020905b81548152906001019060200180831161121f57829003601f168201915b505050505081526020016003820180546112559061219c565b80601f01602080910402602001604051908101604052809291908181526020018280546112819061219c565b80156112ce5780601f106112a3576101008083540402835291602001916112ce565b820191906000526020600020905b8154815290600101906020018083116112b157829003601f168201915b505050505081526020016004820160009054906101000a900473ffffffffffffffffffffffffffffffffffffffff1673ffffffffffffffffffffffffffffffffffffffff1673ffffffffffffffffffffffffffffffffffffffff1681525050828281518110611366577f4e487b7100000000000000000000000000000000000000000000000000000000600052603260045260246000fd5b6020026020010181905250808061137c906121ff565b9150506110ef565b508091505090565b6040518060a0016040528060015481526020018481526020018381526020018281526020013373ffffffffffffffffffffffffffffffffffffffff168152506004600060015481526020019081526020016000206000820151816000015560208201518160010190805190602001906114069291906115c4565b5060408201518160020190805190602001906114239291906115c4565b5060608201518160030190805190602001906114409291906115c4565b5060808201518160040160006101000a81548173ffffffffffffffffffffffffffffffffffffffff021916908373ffffffffffffffffffffffffffffffffffffffff1602179055509050506001600081548092919061149e906121ff565b91905055507f0f387bd84ca9e027b73cc440573df8abda3d380b2dc2a6f8b8d9e6002c6a61126001548484846040516114da9493929190611e26565b60405180910390a1505050565b836004600087815260200190815260200160002060010190805190602001906115119291906115c4565b508260046000878152602001908152602001600020600201908051906020019061153c9291906115c4565b50816004600087815260200190815260200160002060030190805190602001906115679291906115c4565b50806004600087815260200190815260200160002060040160006101000a81548173ffffffffffffffffffffffffffffffffffffffff021916908373ffffffffffffffffffffffffffffffffffffffff1602179055505050505050565b8280546115d09061219c565b90600052602060002090601f0160209004810192826115f25760008555611639565b82601f1061160b57805160ff1916838001178555611639565b82800160010185558215611639579182015b8281111561163857825182559160200191906001019061161d565b5b50905061164691906116ea565b5090565b60405180610100016040528060008152602001606081526020016060815260200160608152602001606081526020016060815260200160608152602001600073ffffffffffffffffffffffffffffffffffffffff1681525090565b6040518060a0016040528060008152602001606081526020016060815260200160608152602001600073ffffffffffffffffffffffffffffffffffffffff1681525090565b5b808211156117035760008160009055506001016116eb565b5090565b600061171a6117158461204e565b612029565b90508281526020810184848401111561173257600080fd5b61173d84828561215a565b509392505050565b600081359050611754816122e6565b92915050565b600082601f83011261176b57600080fd5b813561177b848260208601611707565b91505092915050565b600081359050611793816122fd565b92915050565b60008060008060008060008060006101208a8c0312156117b857600080fd5b60008a013567ffffffffffffffff8111156117d257600080fd5b6117de8c828d0161175a565b99505060208a013567ffffffffffffffff8111156117fb57600080fd5b6118078c828d0161175a565b98505060408a013567ffffffffffffffff81111561182457600080fd5b6118308c828d0161175a565b97505060608a013567ffffffffffffffff81111561184d57600080fd5b6118598c828d0161175a565b96505060808a013567ffffffffffffffff81111561187657600080fd5b6118828c828d0161175a565b95505060a08a013567ffffffffffffffff81111561189f57600080fd5b6118ab8c828d0161175a565b94505060c08a013567ffffffffffffffff8111156118c857600080fd5b6118d48c828d0161175a565b93505060e08a013567ffffffffffffffff8111156118f157600080fd5b6118fd8c828d0161175a565b9250506101008a013567ffffffffffffffff81111561191b57600080fd5b6119278c828d0161175a565b9150509295985092959850929598565b60006020828403121561194957600080fd5b600061195784828501611784565b91505092915050565b6000806040838503121561197357600080fd5b600061198185828601611784565b925050602083013567ffffffffffffffff81111561199e57600080fd5b6119aa8582860161175a565b9150509250929050565b600080600080600060a086880312156119cc57600080fd5b60006119da88828901611784565b955050602086013567ffffffffffffffff8111156119f757600080fd5b611a038882890161175a565b945050604086013567ffffffffffffffff811115611a2057600080fd5b611a2c8882890161175a565b935050606086013567ffffffffffffffff811115611a4957600080fd5b611a558882890161175a565b9250506080611a6688828901611745565b9150509295509295909350565b6000611a7f8383611c15565b905092915050565b6000611a938383611ce8565b905092915050565b611aa48161211e565b82525050565b611ab38161211e565b82525050565b6000611ac48261209f565b611ace81856120da565b935083602082028501611ae08561207f565b8060005b85811015611b1c5784840389528151611afd8582611a73565b9450611b08836120c0565b925060208a01995050600181019050611ae4565b50829750879550505050505092915050565b6000611b39826120aa565b611b4381856120eb565b935083602082028501611b558561208f565b8060005b85811015611b915784840389528151611b728582611a87565b9450611b7d836120cd565b925060208a01995050600181019050611b59565b50829750879550505050505092915050565b6000611bae826120b5565b611bb881856120fc565b9350611bc8818560208601612169565b611bd1816122d5565b840191505092915050565b6000611be7826120b5565b611bf1818561210d565b9350611c01818560208601612169565b611c0a816122d5565b840191505092915050565b600061010083016000830151611c2e6000860182611d6c565b5060208301518482036020860152611c468282611ba3565b91505060408301518482036040860152611c608282611ba3565b91505060608301518482036060860152611c7a8282611ba3565b91505060808301518482036080860152611c948282611ba3565b91505060a083015184820360a0860152611cae8282611ba3565b91505060c083015184820360c0860152611cc88282611ba3565b91505060e0830151611cdd60e0860182611a9b565b508091505092915050565b600060a083016000830151611d006000860182611d6c565b5060208301518482036020860152611d188282611ba3565b91505060408301518482036040860152611d328282611ba3565b91505060608301518482036060860152611d4c8282611ba3565b9150506080830151611d616080860182611a9b565b508091505092915050565b611d7581612150565b82525050565b611d8481612150565b82525050565b6000602082019050611d9f6000830184611aaa565b92915050565b60006020820190508181036000830152611dbf8184611ab9565b905092915050565b60006020820190508181036000830152611de18184611b2e565b905092915050565b60006020820190508181036000830152611e038184611bdc565b905092915050565b6000602082019050611e206000830184611d7b565b92915050565b6000608082019050611e3b6000830187611d7b565b8181036020830152611e4d8186611bdc565b90508181036040830152611e618185611bdc565b90508181036060830152611e758184611bdc565b905095945050505050565b600060a082019050611e956000830188611d7b565b8181036020830152611ea78187611bdc565b90508181036040830152611ebb8186611bdc565b90508181036060830152611ecf8185611bdc565b9050611ede6080830184611aaa565b9695505050505050565b600060e082019050611efd600083018a611d7b565b8181036020830152611f0f8189611bdc565b90508181036040830152611f238188611bdc565b90508181036060830152611f378187611bdc565b90508181036080830152611f4b8186611bdc565b905081810360a0830152611f5f8185611bdc565b905081810360c0830152611f738184611bdc565b905098975050505050505050565b600061010082019050611f97600083018b611d7b565b8181036020830152611fa9818a611bdc565b90508181036040830152611fbd8189611bdc565b90508181036060830152611fd18188611bdc565b90508181036080830152611fe58187611bdc565b905081810360a0830152611ff98186611bdc565b905081810360c083015261200d8185611bdc565b905061201c60e0830184611aaa565b9998505050505050505050565b6000612033612044565b905061203f82826121ce565b919050565b6000604051905090565b600067ffffffffffffffff821115612069576120686122a6565b5b612072826122d5565b9050602081019050919050565b6000819050602082019050919050565b6000819050602082019050919050565b600081519050919050565b600081519050919050565b600081519050919050565b6000602082019050919050565b6000602082019050919050565b600082825260208201905092915050565b600082825260208201905092915050565b600082825260208201905092915050565b600082825260208201905092915050565b600061212982612130565b9050919050565b600073ffffffffffffffffffffffffffffffffffffffff82169050919050565b6000819050919050565b82818337600083830152505050565b60005b8381101561218757808201518184015260208101905061216c565b83811115612196576000848401525b50505050565b600060028204905060018216806121b457607f821691505b602082108114156121c8576121c7612277565b5b50919050565b6121d7826122d5565b810181811067ffffffffffffffff821117156121f6576121f56122a6565b5b80604052505050565b600061220a82612150565b91507fffffffffffffffffffffffffffffffffffffffffffffffffffffffffffffffff82141561223d5761223c612248565b5b600182019050919050565b7f4e487b7100000000000000000000000000000000000000000000000000000000600052601160045260246000fd5b7f4e487b7100000000000000000000000000000000000000000000000000000000600052602260045260246000fd5b7f4e487b7100000000000000000000000000000000000000000000000000000000600052604160045260246000fd5b6000601f19601f8301169050919050565b6122ef8161211e565b81146122fa57600080fd5b50565b61230681612150565b811461231157600080fd5b5056fea26469706673582212200757b1a8b4a6937e9118333c7dc9fb1d0b4ccb63513fb952cea4efddb585486964736f6c63430008040033",
  "immutableReferences": {},
  "source": "// SPDX-License-Identifier: MIT\npragma solidity ^0.8.4;\npragma experimental ABIEncoderV2;\n\ncontract BikeContract {\n\n  uint public bikeCounter = 0;\n  uint public ownerCounter = 0;\n  \n  address public emptyAddress = 0x0000000000000000000000000000000000000000;\n\n  struct bikeDetails {\n    uint bikeID;\n    string make;\n    string model;\n    string colour;\n    string typeBike;\n    string frame_no;\n    string details;\n    address user_address;\n  }\n\n  struct ownerDetails {\n    uint ownerID;\n    string name;\n    string contact_no;\n    string email;\n    address user_address;\n  }\n\n  mapping(uint => bikeDetails) public bikes;\n\n  mapping(uint => ownerDetails) public owner;\n\n  event BikeCreated(\n    uint bikeID,\n    string make,\n    string model,\n    string colour,\n    string typeBike,\n    string frame_no,\n    string details\n  );\n\n  event OwnerAdded(\n    uint ownerID,\n    string name,\n    string contact_no,\n    string email\n  );\n\n    event detailsAdded(\n      string details\n  );\n\n      event transferDone(\n      uint ownerID,\n      string name,\n      string contact_no,\n      string email,\n      address user_address\n  );\n\n      event renounceDone(\n      address user_address\n  );\n\n    /* Bike functions */\n\n  function newBikeSM(string memory _make, string memory _model, string memory _colour, string memory _type, string memory _frame_no, string memory _details, string memory _name, string memory _contact_no, string memory _email) public {\n    bikes[bikeCounter] = bikeDetails(bikeCounter, _make, _model, _colour, _type, _frame_no, _details, msg.sender);\n    bikeCounter++;\n    emit BikeCreated(bikeCounter, _make, _model, _colour, _type, _frame_no, _details);\n    _newOwner(_name, _contact_no, _email);\n  }\n\n  function showListBikeDetails() public view returns (bikeDetails[] memory) {\n    bikeDetails[] memory _bikes = new bikeDetails[](bikeCounter);\n    for (uint i = 0; i < bikeCounter; i++) {\n        _bikes[i] = bikes[i];\n    }\n    return _bikes;\n  }\n\n  /* Owner functions */\n\n  function _newOwner(string memory _name, string memory _contact_no, string memory _email) private {\n    owner[ownerCounter] = ownerDetails(ownerCounter, _name, _contact_no, _email, msg.sender);\n    ownerCounter++;\n    emit OwnerAdded(ownerCounter, _name, _contact_no, _email);\n  }\n\n  function showOwnerDetails() public view returns (ownerDetails[] memory) {\n    ownerDetails[] memory _owner = new ownerDetails[](ownerCounter);\n    for (uint i = 0; i < ownerCounter; i++) {\n        _owner[i] = owner[i];\n    }\n    return _owner;\n  }\n\n    function _updateOwner(uint _id, string memory _name, string memory _contact_no, string memory _email, address _user_address) private {\n      owner[_id].name = _name;\n      owner[_id].contact_no = _contact_no;\n      owner[_id].email = _email;\n      owner[_id].user_address = _user_address;\n  }\n\n    /* Other functions */\n\n  function addDetails(uint _id, string memory _details) public {\n      bikes[_id].details = _details;\n      emit detailsAdded(_details);\n  }\n\n  function transferOwnership(uint _id,  string memory _name, string memory _contact_no, string memory _email, address _newAddress) public {\n      bikes[_id].user_address = _newAddress;\n      _updateOwner(_id, _name, _contact_no, _email, _newAddress);\n      emit transferDone(_id, _name, _contact_no, _email, _newAddress);\n  }\n\n  function renounceOwnership(uint _id) public {\n      bikes[_id].user_address = emptyAddress;\n      emit renounceDone(emptyAddress);\n  }\n}",
  "sourcePath": "C:/Users/Enrico/Desktop/Projects/x20132484_HDBC_SEPOL_PROJECT/contracts/BikeContract.sol",
  "compiler": {
    "name": "solc",
    "version": "0.8.4+commit.c7e474f2.Emscripten.clang"
  },
  "schemaVersion": "3.4.1",
  "updatedAt": "2021-07-18T17:20:54.992Z",
  "devdoc": {
    "kind": "dev",
    "methods": {},
    "version": 1
  },
  "userdoc": {
    "kind": "user",
    "methods": {},
    "version": 1
  }
}