{
  "contractName": "BikeContract",
  "abi": [
    {
      "anonymous": false,
      "inputs": [
        {
          "indexed": false,
          "internalType": "uint256",
          "name": "bikeID",
          "type": "uint256"
        },
        {
          "indexed": false,
          "internalType": "string",
          "name": "make",
          "type": "string"
        },
        {
          "indexed": false,
          "internalType": "string",
          "name": "model",
          "type": "string"
        },
        {
          "indexed": false,
          "internalType": "string",
          "name": "colour",
          "type": "string"
        },
        {
          "indexed": false,
          "internalType": "string",
          "name": "typeBike",
          "type": "string"
        },
        {
          "indexed": false,
          "internalType": "string",
          "name": "frame_no",
          "type": "string"
        },
        {
          "indexed": false,
          "internalType": "string",
          "name": "details",
          "type": "string"
        }
      ],
      "name": "BikeCreated",
      "type": "event"
    },
    {
      "anonymous": false,
      "inputs": [
        {
          "indexed": false,
          "internalType": "uint256",
          "name": "ownerID",
          "type": "uint256"
        },
        {
          "indexed": false,
          "internalType": "string",
          "name": "name",
          "type": "string"
        },
        {
          "indexed": false,
          "internalType": "string",
          "name": "contact_no",
          "type": "string"
        },
        {
          "indexed": false,
          "internalType": "string",
          "name": "email",
          "type": "string"
        }
      ],
      "name": "OwnerAdded",
      "type": "event"
    },
    {
      "anonymous": false,
      "inputs": [
        {
          "indexed": false,
          "internalType": "string",
          "name": "details",
          "type": "string"
        }
      ],
      "name": "detailsAdded",
      "type": "event"
    },
    {
      "anonymous": false,
      "inputs": [
        {
          "indexed": false,
          "internalType": "address",
          "name": "user_address",
          "type": "address"
        }
      ],
      "name": "renounceDone",
      "type": "event"
    },
    {
      "anonymous": false,
      "inputs": [
        {
          "indexed": false,
          "internalType": "uint256",
          "name": "ownerID",
          "type": "uint256"
        },
        {
          "indexed": false,
          "internalType": "string",
          "name": "name",
          "type": "string"
        },
        {
          "indexed": false,
          "internalType": "string",
          "name": "contact_no",
          "type": "string"
        },
        {
          "indexed": false,
          "internalType": "string",
          "name": "email",
          "type": "string"
        },
        {
          "indexed": false,
          "internalType": "address",
          "name": "user_address",
          "type": "address"
        }
      ],
      "name": "transferDone",
      "type": "event"
    },
    {
      "inputs": [
        {
          "internalType": "uint256",
          "name": "",
          "type": "uint256"
        }
      ],
      "name": "bikes",
      "outputs": [
        {
          "internalType": "uint256",
          "name": "bikeID",
          "type": "uint256"
        },
        {
          "internalType": "string",
          "name": "make",
          "type": "string"
        },
        {
          "internalType": "string",
          "name": "model",
          "type": "string"
        },
        {
          "internalType": "string",
          "name": "colour",
          "type": "string"
        },
        {
          "internalType": "string",
          "name": "typeBike",
          "type": "string"
        },
        {
          "internalType": "string",
          "name": "frame_no",
          "type": "string"
        },
        {
          "internalType": "string",
          "name": "details",
          "type": "string"
        },
        {
          "internalType": "address",
          "name": "user_address",
          "type": "address"
        }
      ],
      "stateMutability": "view",
      "type": "function",
      "constant": true
    },
    {
      "inputs": [
        {
          "internalType": "uint256",
          "name": "",
          "type": "uint256"
        }
      ],
      "name": "owner",
      "outputs": [
        {
          "internalType": "uint256",
          "name": "ownerID",
          "type": "uint256"
        },
        {
          "internalType": "string",
          "name": "name",
          "type": "string"
        },
        {
          "internalType": "string",
          "name": "contact_no",
          "type": "string"
        },
        {
          "internalType": "string",
          "name": "email",
          "type": "string"
        },
        {
          "internalType": "address",
          "name": "user_address",
          "type": "address"
        }
      ],
      "stateMutability": "view",
      "type": "function",
      "constant": true
    },
    {
      "inputs": [
        {
          "internalType": "string",
          "name": "_make",
          "type": "string"
        },
        {
          "internalType": "string",
          "name": "_model",
          "type": "string"
        },
        {
          "internalType": "string",
          "name": "_colour",
          "type": "string"
        },
        {
          "internalType": "string",
          "name": "_type",
          "type": "string"
        },
        {
          "internalType": "string",
          "name": "_frame_no",
          "type": "string"
        },
        {
          "internalType": "string",
          "name": "_details",
          "type": "string"
        },
        {
          "internalType": "string",
          "name": "_name",
          "type": "string"
        },
        {
          "internalType": "string",
          "name": "_contact_no",
          "type": "string"
        },
        {
          "internalType": "string",
          "name": "_email",
          "type": "string"
        }
      ],
      "name": "newBikeSM",
      "outputs": [],
      "stateMutability": "nonpayable",
      "type": "function"
    },
    {
      "inputs": [],
      "name": "showListBikeDetails",
      "outputs": [
        {
          "components": [
            {
              "internalType": "uint256",
              "name": "bikeID",
              "type": "uint256"
            },
            {
              "internalType": "string",
              "name": "make",
              "type": "string"
            },
            {
              "internalType": "string",
              "name": "model",
              "type": "string"
            },
            {
              "internalType": "string",
              "name": "colour",
              "type": "string"
            },
            {
              "internalType": "string",
              "name": "typeBike",
              "type": "string"
            },
            {
              "internalType": "string",
              "name": "frame_no",
              "type": "string"
            },
            {
              "internalType": "string",
              "name": "details",
              "type": "string"
            },
            {
              "internalType": "address",
              "name": "user_address",
              "type": "address"
            }
          ],
          "internalType": "struct BikeContract.bikeDetails[]",
          "name": "",
          "type": "tuple[]"
        }
      ],
      "stateMutability": "view",
      "type": "function",
      "constant": true
    },
    {
      "inputs": [],
      "name": "showOwnerDetails",
      "outputs": [
        {
          "components": [
            {
              "internalType": "uint256",
              "name": "ownerID",
              "type": "uint256"
            },
            {
              "internalType": "string",
              "name": "name",
              "type": "string"
            },
            {
              "internalType": "string",
              "name": "contact_no",
              "type": "string"
            },
            {
              "internalType": "string",
              "name": "email",
              "type": "string"
            },
            {
              "internalType": "address",
              "name": "user_address",
              "type": "address"
            }
          ],
          "internalType": "struct BikeContract.ownerDetails[]",
          "name": "",
          "type": "tuple[]"
        }
      ],
      "stateMutability": "view",
      "type": "function",
      "constant": true
    },
    {
      "inputs": [
        {
          "internalType": "uint256",
          "name": "_id",
          "type": "uint256"
        },
        {
          "internalType": "string",
          "name": "_details",
          "type": "string"
        }
      ],
      "name": "addDetails",
      "outputs": [],
      "stateMutability": "nonpayable",
      "type": "function"
    },
    {
      "inputs": [
        {
          "internalType": "uint256",
          "name": "_id",
          "type": "uint256"
        },
        {
          "internalType": "string",
          "name": "_name",
          "type": "string"
        },
        {
          "internalType": "string",
          "name": "_contact_no",
          "type": "string"
        },
        {
          "internalType": "string",
          "name": "_email",
          "type": "string"
        },
        {
          "internalType": "address",
          "name": "_newAddress",
          "type": "address"
        }
      ],
      "name": "transferOwnership",
      "outputs": [],
      "stateMutability": "nonpayable",
      "type": "function"
    },
    {
      "inputs": [
        {
          "internalType": "uint256",
          "name": "_id",
          "type": "uint256"
        }
      ],
      "name": "renounceOwnership",
      "outputs": [],
      "stateMutability": "nonpayable",
      "type": "function"
    }
  ],
  "bytecode": "0x60806040526000805560006001556000600260006101000a81548173ffffffffffffffffffffffffffffffffffffffff021916908373ffffffffffffffffffffffffffffffffffffffff16021790555034801561005b57600080fd5b506122828061006b6000396000f3fe608060405234801561001057600080fd5b50600436106100885760003560e01c8063a123c33e1161005b578063a123c33e14610118578063dd7991091461014c578063f50d3d571461016a578063fbd1427c1461018657610088565b8063382f25a11461008d578063472edcd0146100a95780635c526e19146100c55780637d654c7f146100fc575b600080fd5b6100a760048036038101906100a291906116ec565b6101a4565b005b6100c360048036038101906100be91906118b3565b61037e565b005b6100df60048036038101906100da919061188a565b6103e4565b6040516100f3989796959493929190611eb9565b60405180910390f35b6101166004803603810190610111919061188a565b61077c565b005b610132600480360381019061012d919061188a565b61084f565b604051610143959493929190611db8565b60405180910390f35b610154610a3d565b6040516101619190611cf8565b60405180910390f35b610184600480360381019061017f9190611907565b610f15565b005b61018e610fbd565b60405161019b9190611d1a565b60405180910390f35b60405180610100016040528060005481526020018a81526020018981526020018881526020018781526020018681526020018581526020013373ffffffffffffffffffffffffffffffffffffffff168152506003600080548152602001908152602001600020600082015181600001556020820151816001019080519060200190610230929190611517565b50604082015181600201908051906020019061024d929190611517565b50606082015181600301908051906020019061026a929190611517565b506080820151816004019080519060200190610287929190611517565b5060a08201518160050190805190602001906102a4929190611517565b5060c08201518160060190805190602001906102c1929190611517565b5060e08201518160070160006101000a81548173ffffffffffffffffffffffffffffffffffffffff021916908373ffffffffffffffffffffffffffffffffffffffff16021790555090505060008081548092919061031e90612137565b91905055507fa862898981bb615c94096b1af912a4d7558372e5eeb2e433c75529698bd28edc6000548a8a8a8a8a8a6040516103609796959493929190611e20565b60405180910390a16103738383836112df565b505050505050505050565b806003600084815260200190815260200160002060060190805190602001906103a8929190611517565b507f726982f645aa011c5b29c51ed4e248885b77a8e5c41e05f4fc1e50c8ee986fc9816040516103d89190611d3c565b60405180910390a15050565b600360205280600052604060002060009150905080600001549080600101805461040d906120d4565b80601f0160208091040260200160405190810160405280929190818152602001828054610439906120d4565b80156104865780601f1061045b57610100808354040283529160200191610486565b820191906000526020600020905b81548152906001019060200180831161046957829003601f168201915b50505050509080600201805461049b906120d4565b80601f01602080910402602001604051908101604052809291908181526020018280546104c7906120d4565b80156105145780601f106104e957610100808354040283529160200191610514565b820191906000526020600020905b8154815290600101906020018083116104f757829003601f168201915b505050505090806003018054610529906120d4565b80601f0160208091040260200160405190810160405280929190818152602001828054610555906120d4565b80156105a25780601f10610577576101008083540402835291602001916105a2565b820191906000526020600020905b81548152906001019060200180831161058557829003601f168201915b5050505050908060040180546105b7906120d4565b80601f01602080910402602001604051908101604052809291908181526020018280546105e3906120d4565b80156106305780601f1061060557610100808354040283529160200191610630565b820191906000526020600020905b81548152906001019060200180831161061357829003601f168201915b505050505090806005018054610645906120d4565b80601f0160208091040260200160405190810160405280929190818152602001828054610671906120d4565b80156106be5780601f10610693576101008083540402835291602001916106be565b820191906000526020600020905b8154815290600101906020018083116106a157829003601f168201915b5050505050908060060180546106d3906120d4565b80601f01602080910402602001604051908101604052809291908181526020018280546106ff906120d4565b801561074c5780601f106107215761010080835404028352916020019161074c565b820191906000526020600020905b81548152906001019060200180831161072f57829003601f168201915b5050505050908060070160009054906101000a900473ffffffffffffffffffffffffffffffffffffffff16905088565b600260009054906101000a900473ffffffffffffffffffffffffffffffffffffffff166003600083815260200190815260200160002060070160006101000a81548173ffffffffffffffffffffffffffffffffffffffff021916908373ffffffffffffffffffffffffffffffffffffffff1602179055507f2ccd6c888cce49d87141ab0e9f17b17e7fd5ca376879d7d85db65ba47cc9acae600260009054906101000a900473ffffffffffffffffffffffffffffffffffffffff166040516108449190611cdd565b60405180910390a150565b6004602052806000526040600020600091509050806000015490806001018054610878906120d4565b80601f01602080910402602001604051908101604052809291908181526020018280546108a4906120d4565b80156108f15780601f106108c6576101008083540402835291602001916108f1565b820191906000526020600020905b8154815290600101906020018083116108d457829003601f168201915b505050505090806002018054610906906120d4565b80601f0160208091040260200160405190810160405280929190818152602001828054610932906120d4565b801561097f5780601f106109545761010080835404028352916020019161097f565b820191906000526020600020905b81548152906001019060200180831161096257829003601f168201915b505050505090806003018054610994906120d4565b80601f01602080910402602001604051908101604052809291908181526020018280546109c0906120d4565b8015610a0d5780601f106109e257610100808354040283529160200191610a0d565b820191906000526020600020905b8154815290600101906020018083116109f057829003601f168201915b5050505050908060040160009054906101000a900473ffffffffffffffffffffffffffffffffffffffff16905085565b60606000805467ffffffffffffffff811115610a82577f4e487b7100000000000000000000000000000000000000000000000000000000600052604160045260246000fd5b604051908082528060200260200182016040528015610abb57816020015b610aa861159d565b815260200190600190039081610aa05790505b50905060005b600054811015610f0d57600360008281526020019081526020016000206040518061010001604052908160008201548152602001600182018054610b04906120d4565b80601f0160208091040260200160405190810160405280929190818152602001828054610b30906120d4565b8015610b7d5780601f10610b5257610100808354040283529160200191610b7d565b820191906000526020600020905b815481529060010190602001808311610b6057829003601f168201915b50505050508152602001600282018054610b96906120d4565b80601f0160208091040260200160405190810160405280929190818152602001828054610bc2906120d4565b8015610c0f5780601f10610be457610100808354040283529160200191610c0f565b820191906000526020600020905b815481529060010190602001808311610bf257829003601f168201915b50505050508152602001600382018054610c28906120d4565b80601f0160208091040260200160405190810160405280929190818152602001828054610c54906120d4565b8015610ca15780601f10610c7657610100808354040283529160200191610ca1565b820191906000526020600020905b815481529060010190602001808311610c8457829003601f168201915b50505050508152602001600482018054610cba906120d4565b80601f0160208091040260200160405190810160405280929190818152602001828054610ce6906120d4565b8015610d335780601f10610d0857610100808354040283529160200191610d33565b820191906000526020600020905b815481529060010190602001808311610d1657829003601f168201915b50505050508152602001600582018054610d4c906120d4565b80601f0160208091040260200160405190810160405280929190818152602001828054610d78906120d4565b8015610dc55780601f10610d9a57610100808354040283529160200191610dc5565b820191906000526020600020905b815481529060010190602001808311610da857829003601f168201915b50505050508152602001600682018054610dde906120d4565b80601f0160208091040260200160405190810160405280929190818152602001828054610e0a906120d4565b8015610e575780601f10610e2c57610100808354040283529160200191610e57565b820191906000526020600020905b815481529060010190602001808311610e3a57829003601f168201915b505050505081526020016007820160009054906101000a900473ffffffffffffffffffffffffffffffffffffffff1673ffffffffffffffffffffffffffffffffffffffff1673ffffffffffffffffffffffffffffffffffffffff1681525050828281518110610eef577f4e487b7100000000000000000000000000000000000000000000000000000000600052603260045260246000fd5b60200260200101819052508080610f0590612137565b915050610ac1565b508091505090565b806003600087815260200190815260200160002060070160006101000a81548173ffffffffffffffffffffffffffffffffffffffff021916908373ffffffffffffffffffffffffffffffffffffffff160217905550610f77858585858561143a565b7ffaa2e40b59be248c5aad70f1b16d7daaf9f48ed5b592531469657773d78271af8585858585604051610fae959493929190611db8565b60405180910390a15050505050565b6060600060015467ffffffffffffffff811115611003577f4e487b7100000000000000000000000000000000000000000000000000000000600052604160045260246000fd5b60405190808252806020026020018201604052801561103c57816020015b6110296115f8565b8152602001906001900390816110215790505b50905060005b6001548110156112d757600460008281526020019081526020016000206040518060a001604052908160008201548152602001600182018054611084906120d4565b80601f01602080910402602001604051908101604052809291908181526020018280546110b0906120d4565b80156110fd5780601f106110d2576101008083540402835291602001916110fd565b820191906000526020600020905b8154815290600101906020018083116110e057829003601f168201915b50505050508152602001600282018054611116906120d4565b80601f0160208091040260200160405190810160405280929190818152602001828054611142906120d4565b801561118f5780601f106111645761010080835404028352916020019161118f565b820191906000526020600020905b81548152906001019060200180831161117257829003601f168201915b505050505081526020016003820180546111a8906120d4565b80601f01602080910402602001604051908101604052809291908181526020018280546111d4906120d4565b80156112215780601f106111f657610100808354040283529160200191611221565b820191906000526020600020905b81548152906001019060200180831161120457829003601f168201915b505050505081526020016004820160009054906101000a900473ffffffffffffffffffffffffffffffffffffffff1673ffffffffffffffffffffffffffffffffffffffff1673ffffffffffffffffffffffffffffffffffffffff16815250508282815181106112b9577f4e487b7100000000000000000000000000000000000000000000000000000000600052603260045260246000fd5b602002602001018190525080806112cf90612137565b915050611042565b508091505090565b6040518060a0016040528060015481526020018481526020018381526020018281526020013373ffffffffffffffffffffffffffffffffffffffff16815250600460006001548152602001908152602001600020600082015181600001556020820151816001019080519060200190611359929190611517565b506040820151816002019080519060200190611376929190611517565b506060820151816003019080519060200190611393929190611517565b5060808201518160040160006101000a81548173ffffffffffffffffffffffffffffffffffffffff021916908373ffffffffffffffffffffffffffffffffffffffff160217905550905050600160008154809291906113f190612137565b91905055507f0f387bd84ca9e027b73cc440573df8abda3d380b2dc2a6f8b8d9e6002c6a611260015484848460405161142d9493929190611d5e565b60405180910390a1505050565b83600460008781526020019081526020016000206001019080519060200190611464929190611517565b508260046000878152602001908152602001600020600201908051906020019061148f929190611517565b50816004600087815260200190815260200160002060030190805190602001906114ba929190611517565b50806004600087815260200190815260200160002060040160006101000a81548173ffffffffffffffffffffffffffffffffffffffff021916908373ffffffffffffffffffffffffffffffffffffffff1602179055505050505050565b828054611523906120d4565b90600052602060002090601f016020900481019282611545576000855561158c565b82601f1061155e57805160ff191683800117855561158c565b8280016001018555821561158c579182015b8281111561158b578251825591602001919060010190611570565b5b509050611599919061163d565b5090565b60405180610100016040528060008152602001606081526020016060815260200160608152602001606081526020016060815260200160608152602001600073ffffffffffffffffffffffffffffffffffffffff1681525090565b6040518060a0016040528060008152602001606081526020016060815260200160608152602001600073ffffffffffffffffffffffffffffffffffffffff1681525090565b5b8082111561165657600081600090555060010161163e565b5090565b600061166d61166884611f86565b611f61565b90508281526020810184848401111561168557600080fd5b611690848285612092565b509392505050565b6000813590506116a78161221e565b92915050565b600082601f8301126116be57600080fd5b81356116ce84826020860161165a565b91505092915050565b6000813590506116e681612235565b92915050565b60008060008060008060008060006101208a8c03121561170b57600080fd5b60008a013567ffffffffffffffff81111561172557600080fd5b6117318c828d016116ad565b99505060208a013567ffffffffffffffff81111561174e57600080fd5b61175a8c828d016116ad565b98505060408a013567ffffffffffffffff81111561177757600080fd5b6117838c828d016116ad565b97505060608a013567ffffffffffffffff8111156117a057600080fd5b6117ac8c828d016116ad565b96505060808a013567ffffffffffffffff8111156117c957600080fd5b6117d58c828d016116ad565b95505060a08a013567ffffffffffffffff8111156117f257600080fd5b6117fe8c828d016116ad565b94505060c08a013567ffffffffffffffff81111561181b57600080fd5b6118278c828d016116ad565b93505060e08a013567ffffffffffffffff81111561184457600080fd5b6118508c828d016116ad565b9250506101008a013567ffffffffffffffff81111561186e57600080fd5b61187a8c828d016116ad565b9150509295985092959850929598565b60006020828403121561189c57600080fd5b60006118aa848285016116d7565b91505092915050565b600080604083850312156118c657600080fd5b60006118d4858286016116d7565b925050602083013567ffffffffffffffff8111156118f157600080fd5b6118fd858286016116ad565b9150509250929050565b600080600080600060a0868803121561191f57600080fd5b600061192d888289016116d7565b955050602086013567ffffffffffffffff81111561194a57600080fd5b611956888289016116ad565b945050604086013567ffffffffffffffff81111561197357600080fd5b61197f888289016116ad565b935050606086013567ffffffffffffffff81111561199c57600080fd5b6119a8888289016116ad565b92505060806119b988828901611698565b9150509295509295909350565b60006119d28383611b68565b905092915050565b60006119e68383611c3b565b905092915050565b6119f781612056565b82525050565b611a0681612056565b82525050565b6000611a1782611fd7565b611a218185612012565b935083602082028501611a3385611fb7565b8060005b85811015611a6f5784840389528151611a5085826119c6565b9450611a5b83611ff8565b925060208a01995050600181019050611a37565b50829750879550505050505092915050565b6000611a8c82611fe2565b611a968185612023565b935083602082028501611aa885611fc7565b8060005b85811015611ae45784840389528151611ac585826119da565b9450611ad083612005565b925060208a01995050600181019050611aac565b50829750879550505050505092915050565b6000611b0182611fed565b611b0b8185612034565b9350611b1b8185602086016120a1565b611b248161220d565b840191505092915050565b6000611b3a82611fed565b611b448185612045565b9350611b548185602086016120a1565b611b5d8161220d565b840191505092915050565b600061010083016000830151611b816000860182611cbf565b5060208301518482036020860152611b998282611af6565b91505060408301518482036040860152611bb38282611af6565b91505060608301518482036060860152611bcd8282611af6565b91505060808301518482036080860152611be78282611af6565b91505060a083015184820360a0860152611c018282611af6565b91505060c083015184820360c0860152611c1b8282611af6565b91505060e0830151611c3060e08601826119ee565b508091505092915050565b600060a083016000830151611c536000860182611cbf565b5060208301518482036020860152611c6b8282611af6565b91505060408301518482036040860152611c858282611af6565b91505060608301518482036060860152611c9f8282611af6565b9150506080830151611cb460808601826119ee565b508091505092915050565b611cc881612088565b82525050565b611cd781612088565b82525050565b6000602082019050611cf260008301846119fd565b92915050565b60006020820190508181036000830152611d128184611a0c565b905092915050565b60006020820190508181036000830152611d348184611a81565b905092915050565b60006020820190508181036000830152611d568184611b2f565b905092915050565b6000608082019050611d736000830187611cce565b8181036020830152611d858186611b2f565b90508181036040830152611d998185611b2f565b90508181036060830152611dad8184611b2f565b905095945050505050565b600060a082019050611dcd6000830188611cce565b8181036020830152611ddf8187611b2f565b90508181036040830152611df38186611b2f565b90508181036060830152611e078185611b2f565b9050611e1660808301846119fd565b9695505050505050565b600060e082019050611e35600083018a611cce565b8181036020830152611e478189611b2f565b90508181036040830152611e5b8188611b2f565b90508181036060830152611e6f8187611b2f565b90508181036080830152611e838186611b2f565b905081810360a0830152611e978185611b2f565b905081810360c0830152611eab8184611b2f565b905098975050505050505050565b600061010082019050611ecf600083018b611cce565b8181036020830152611ee1818a611b2f565b90508181036040830152611ef58189611b2f565b90508181036060830152611f098188611b2f565b90508181036080830152611f1d8187611b2f565b905081810360a0830152611f318186611b2f565b905081810360c0830152611f458185611b2f565b9050611f5460e08301846119fd565b9998505050505050505050565b6000611f6b611f7c565b9050611f778282612106565b919050565b6000604051905090565b600067ffffffffffffffff821115611fa157611fa06121de565b5b611faa8261220d565b9050602081019050919050565b6000819050602082019050919050565b6000819050602082019050919050565b600081519050919050565b600081519050919050565b600081519050919050565b6000602082019050919050565b6000602082019050919050565b600082825260208201905092915050565b600082825260208201905092915050565b600082825260208201905092915050565b600082825260208201905092915050565b600061206182612068565b9050919050565b600073ffffffffffffffffffffffffffffffffffffffff82169050919050565b6000819050919050565b82818337600083830152505050565b60005b838110156120bf5780820151818401526020810190506120a4565b838111156120ce576000848401525b50505050565b600060028204905060018216806120ec57607f821691505b60208210811415612100576120ff6121af565b5b50919050565b61210f8261220d565b810181811067ffffffffffffffff8211171561212e5761212d6121de565b5b80604052505050565b600061214282612088565b91507fffffffffffffffffffffffffffffffffffffffffffffffffffffffffffffffff82141561217557612174612180565b5b600182019050919050565b7f4e487b7100000000000000000000000000000000000000000000000000000000600052601160045260246000fd5b7f4e487b7100000000000000000000000000000000000000000000000000000000600052602260045260246000fd5b7f4e487b7100000000000000000000000000000000000000000000000000000000600052604160045260246000fd5b6000601f19601f8301169050919050565b61222781612056565b811461223257600080fd5b50565b61223e81612088565b811461224957600080fd5b5056fea2646970667358221220223762b5b1d732674caeb90312cec84ed9ef7fe950642383a6f8592e849554ca64736f6c63430008040033",
  "immutableReferences": {},
  "source": "// SPDX-License-Identifier: MIT\npragma solidity ^0.8.4;\npragma experimental ABIEncoderV2;\n\ncontract BikeContract {\n\n  uint private bikeCounter = 0;\n  uint private ownerCounter = 0;\n  address private emptyAddress = 0x0000000000000000000000000000000000000000;\n\n  struct bikeDetails {\n    uint bikeID;\n    string make;\n    string model;\n    string colour;\n    string typeBike;\n    string frame_no;\n    string details;\n    address user_address;\n  }\n\n  struct ownerDetails {\n    uint ownerID;\n    string name;\n    string contact_no;\n    string email;\n    address user_address;\n  }\n\n  mapping(uint => bikeDetails) public bikes;\n\n  mapping(uint => ownerDetails) public owner;\n\n  event BikeCreated(\n    uint bikeID,\n    string make,\n    string model,\n    string colour,\n    string typeBike,\n    string frame_no,\n    string details\n  );\n\n  event OwnerAdded(\n    uint ownerID,\n    string name,\n    string contact_no,\n    string email\n  );\n\n    event detailsAdded(\n      string details\n  );\n\n      event transferDone(\n      uint ownerID,\n      string name,\n      string contact_no,\n      string email,\n      address user_address\n  );\n\n      event renounceDone(\n      address user_address\n  );\n\n    /* Bike functions */\n\n  function newBikeSM(string memory _make, string memory _model, string memory _colour, string memory _type, string memory _frame_no, string memory _details, string memory _name, string memory _contact_no, string memory _email) public {\n    bikes[bikeCounter] = bikeDetails(bikeCounter, _make, _model, _colour, _type, _frame_no, _details, msg.sender);\n    bikeCounter++;\n    emit BikeCreated(bikeCounter, _make, _model, _colour, _type, _frame_no, _details);\n    _newOwner(_name, _contact_no, _email);\n  }\n\n  function showListBikeDetails() public view returns (bikeDetails[] memory) {\n    bikeDetails[] memory _bikes = new bikeDetails[](bikeCounter);\n    for (uint i = 0; i < bikeCounter; i++) {\n        _bikes[i] = bikes[i];\n    }\n    return _bikes;\n  }\n\n  /* Owner functions */\n\n  function _newOwner(string memory _name, string memory _contact_no, string memory _email) private {\n    owner[ownerCounter] = ownerDetails(ownerCounter, _name, _contact_no, _email, msg.sender);\n    ownerCounter++;\n    emit OwnerAdded(ownerCounter, _name, _contact_no, _email);\n  }\n\n  function showOwnerDetails() public view returns (ownerDetails[] memory) {\n    ownerDetails[] memory _owner = new ownerDetails[](ownerCounter);\n    for (uint i = 0; i < ownerCounter; i++) {\n        _owner[i] = owner[i];\n    }\n    return _owner;\n  }\n\n  function _updateOwner(uint _id, string memory _name, string memory _contact_no, string memory _email, address _user_address) private {\n    owner[_id].name = _name;\n    owner[_id].contact_no = _contact_no;\n    owner[_id].email = _email;\n    owner[_id].user_address = _user_address;\n  }\n\n    /* Other functions */\n\n  function addDetails(uint _id, string memory _details) public {\n    bikes[_id].details = _details;\n    emit detailsAdded(_details);\n  }\n\n  function transferOwnership(uint _id,  string memory _name, string memory _contact_no, string memory _email, address _newAddress) public {\n    bikes[_id].user_address = _newAddress;\n    _updateOwner(_id, _name, _contact_no, _email, _newAddress);\n    emit transferDone(_id, _name, _contact_no, _email, _newAddress);\n  }\n\n  function renounceOwnership(uint _id) public {\n    bikes[_id].user_address = emptyAddress;\n    emit renounceDone(emptyAddress);\n  }\n}",
  "sourcePath": "C:/Users/Enrico/Desktop/Projects/x20132484_HDBC_SEPOL_PROJECT/contracts/BikeContract.sol",
  "compiler": {
    "name": "solc",
    "version": "0.8.4+commit.c7e474f2.Emscripten.clang"
  },
  "schemaVersion": "3.4.1",
  "updatedAt": "2021-07-18T17:45:08.290Z",
  "networkType": "ethereum",
  "devdoc": {
    "kind": "dev",
    "methods": {},
    "version": 1
  },
  "userdoc": {
    "kind": "user",
    "methods": {},
    "version": 1
  }
}