{
  "contractName": "BikeContract",
  "abi": [
    {
      "anonymous": false,
      "inputs": [
        {
          "indexed": false,
          "internalType": "uint256",
          "name": "bikeID",
          "type": "uint256"
        },
        {
          "indexed": false,
          "internalType": "string",
          "name": "make",
          "type": "string"
        },
        {
          "indexed": false,
          "internalType": "string",
          "name": "model",
          "type": "string"
        },
        {
          "indexed": false,
          "internalType": "string",
          "name": "colour",
          "type": "string"
        },
        {
          "indexed": false,
          "internalType": "string",
          "name": "typeBike",
          "type": "string"
        },
        {
          "indexed": false,
          "internalType": "string",
          "name": "frame_no",
          "type": "string"
        }
      ],
      "name": "BikeCreated",
      "type": "event"
    },
    {
      "anonymous": false,
      "inputs": [
        {
          "indexed": false,
          "internalType": "uint256",
          "name": "ownerID",
          "type": "uint256"
        },
        {
          "indexed": false,
          "internalType": "string",
          "name": "name",
          "type": "string"
        },
        {
          "indexed": false,
          "internalType": "string",
          "name": "contact_no",
          "type": "string"
        },
        {
          "indexed": false,
          "internalType": "string",
          "name": "email",
          "type": "string"
        }
      ],
      "name": "OwnerAdded",
      "type": "event"
    },
    {
      "inputs": [],
      "name": "bikeCounter",
      "outputs": [
        {
          "internalType": "uint256",
          "name": "",
          "type": "uint256"
        }
      ],
      "stateMutability": "view",
      "type": "function",
      "constant": true
    },
    {
      "inputs": [
        {
          "internalType": "uint256",
          "name": "",
          "type": "uint256"
        }
      ],
      "name": "bikes",
      "outputs": [
        {
          "internalType": "uint256",
          "name": "bikeID",
          "type": "uint256"
        },
        {
          "internalType": "string",
          "name": "make",
          "type": "string"
        },
        {
          "internalType": "string",
          "name": "model",
          "type": "string"
        },
        {
          "internalType": "string",
          "name": "colour",
          "type": "string"
        },
        {
          "internalType": "string",
          "name": "typeBike",
          "type": "string"
        },
        {
          "internalType": "string",
          "name": "frame_no",
          "type": "string"
        },
        {
          "internalType": "address",
          "name": "user_address",
          "type": "address"
        }
      ],
      "stateMutability": "view",
      "type": "function",
      "constant": true
    },
    {
      "inputs": [
        {
          "internalType": "uint256",
          "name": "",
          "type": "uint256"
        }
      ],
      "name": "owner",
      "outputs": [
        {
          "internalType": "uint256",
          "name": "ownerID",
          "type": "uint256"
        },
        {
          "internalType": "string",
          "name": "name",
          "type": "string"
        },
        {
          "internalType": "string",
          "name": "contact_no",
          "type": "string"
        },
        {
          "internalType": "string",
          "name": "email",
          "type": "string"
        },
        {
          "internalType": "address",
          "name": "user_address",
          "type": "address"
        }
      ],
      "stateMutability": "view",
      "type": "function",
      "constant": true
    },
    {
      "inputs": [],
      "name": "ownerCounter",
      "outputs": [
        {
          "internalType": "uint256",
          "name": "",
          "type": "uint256"
        }
      ],
      "stateMutability": "view",
      "type": "function",
      "constant": true
    },
    {
      "inputs": [
        {
          "internalType": "string",
          "name": "_make",
          "type": "string"
        },
        {
          "internalType": "string",
          "name": "_model",
          "type": "string"
        },
        {
          "internalType": "string",
          "name": "_colour",
          "type": "string"
        },
        {
          "internalType": "string",
          "name": "_type",
          "type": "string"
        },
        {
          "internalType": "string",
          "name": "_frame_no",
          "type": "string"
        },
        {
          "internalType": "string",
          "name": "_name",
          "type": "string"
        },
        {
          "internalType": "string",
          "name": "_contact_no",
          "type": "string"
        },
        {
          "internalType": "string",
          "name": "_email",
          "type": "string"
        }
      ],
      "name": "newBikeSM",
      "outputs": [],
      "stateMutability": "nonpayable",
      "type": "function"
    },
    {
      "inputs": [],
      "name": "showBikeDetails",
      "outputs": [
        {
          "components": [
            {
              "internalType": "uint256",
              "name": "bikeID",
              "type": "uint256"
            },
            {
              "internalType": "string",
              "name": "make",
              "type": "string"
            },
            {
              "internalType": "string",
              "name": "model",
              "type": "string"
            },
            {
              "internalType": "string",
              "name": "colour",
              "type": "string"
            },
            {
              "internalType": "string",
              "name": "typeBike",
              "type": "string"
            },
            {
              "internalType": "string",
              "name": "frame_no",
              "type": "string"
            },
            {
              "internalType": "address",
              "name": "user_address",
              "type": "address"
            }
          ],
          "internalType": "struct BikeContract.bikeDetails[]",
          "name": "",
          "type": "tuple[]"
        }
      ],
      "stateMutability": "view",
      "type": "function",
      "constant": true
    },
    {
      "inputs": [],
      "name": "showOwnerDetails",
      "outputs": [
        {
          "components": [
            {
              "internalType": "uint256",
              "name": "ownerID",
              "type": "uint256"
            },
            {
              "internalType": "string",
              "name": "name",
              "type": "string"
            },
            {
              "internalType": "string",
              "name": "contact_no",
              "type": "string"
            },
            {
              "internalType": "string",
              "name": "email",
              "type": "string"
            },
            {
              "internalType": "address",
              "name": "user_address",
              "type": "address"
            }
          ],
          "internalType": "struct BikeContract.ownerDetails[]",
          "name": "",
          "type": "tuple[]"
        }
      ],
      "stateMutability": "view",
      "type": "function",
      "constant": true
    }
  ],
  "bytecode": "0x608060405260008055600060015534801561001957600080fd5b50611c88806100296000396000f3fe608060405234801561001057600080fd5b506004361061007d5760003560e01c8063a123c33e1161005b578063a123c33e146100f2578063d0c0dde414610126578063f9a4803114610144578063fbd1427c146101625761007d565b80631e0973bd1461008257806330943fcf1461009e5780635c526e19146100bc575b600080fd5b61009c600480360381019061009791906112b0565b610180565b005b6100a6610333565b6040516100b3919061178b565b60405180910390f35b6100d660048036038101906100d19190611422565b610339565b6040516100e997969594939291906118ec565b60405180910390f35b61010c60048036038101906101079190611422565b610643565b60405161011d959493929190611800565b60405180910390f35b61012e610831565b60405161013b9190611747565b60405180910390f35b61014c610c76565b604051610159919061178b565b60405180910390f35b61016a610c7c565b6040516101779190611769565b60405180910390f35b6040518060e0016040528060005481526020018981526020018881526020018781526020018681526020018581526020013373ffffffffffffffffffffffffffffffffffffffff1681525060026000805481526020019081526020016000206000820151816000015560208201518160010190805190602001906102059291906110f8565b5060408201518160020190805190602001906102229291906110f8565b50606082015181600301908051906020019061023f9291906110f8565b50608082015181600401908051906020019061025c9291906110f8565b5060a08201518160050190805190602001906102799291906110f8565b5060c08201518160060160006101000a81548173ffffffffffffffffffffffffffffffffffffffff021916908373ffffffffffffffffffffffffffffffffffffffff1602179055509050506000808154809291906102d690611b54565b91905055507fb2232c4198923eb10cb52a537b2e43fd3b7d11a63bebdc15a55e9afb35f46512600054898989898960405161031696959493929190611868565b60405180910390a1610329838383610f9d565b5050505050505050565b60015481565b600260205280600052604060002060009150905080600001549080600101805461036290611af1565b80601f016020809104026020016040519081016040528092919081815260200182805461038e90611af1565b80156103db5780601f106103b0576101008083540402835291602001916103db565b820191906000526020600020905b8154815290600101906020018083116103be57829003601f168201915b5050505050908060020180546103f090611af1565b80601f016020809104026020016040519081016040528092919081815260200182805461041c90611af1565b80156104695780601f1061043e57610100808354040283529160200191610469565b820191906000526020600020905b81548152906001019060200180831161044c57829003601f168201915b50505050509080600301805461047e90611af1565b80601f01602080910402602001604051908101604052809291908181526020018280546104aa90611af1565b80156104f75780601f106104cc576101008083540402835291602001916104f7565b820191906000526020600020905b8154815290600101906020018083116104da57829003601f168201915b50505050509080600401805461050c90611af1565b80601f016020809104026020016040519081016040528092919081815260200182805461053890611af1565b80156105855780601f1061055a57610100808354040283529160200191610585565b820191906000526020600020905b81548152906001019060200180831161056857829003601f168201915b50505050509080600501805461059a90611af1565b80601f01602080910402602001604051908101604052809291908181526020018280546105c690611af1565b80156106135780601f106105e857610100808354040283529160200191610613565b820191906000526020600020905b8154815290600101906020018083116105f657829003601f168201915b5050505050908060060160009054906101000a900473ffffffffffffffffffffffffffffffffffffffff16905087565b600360205280600052604060002060009150905080600001549080600101805461066c90611af1565b80601f016020809104026020016040519081016040528092919081815260200182805461069890611af1565b80156106e55780601f106106ba576101008083540402835291602001916106e5565b820191906000526020600020905b8154815290600101906020018083116106c857829003601f168201915b5050505050908060020180546106fa90611af1565b80601f016020809104026020016040519081016040528092919081815260200182805461072690611af1565b80156107735780601f1061074857610100808354040283529160200191610773565b820191906000526020600020905b81548152906001019060200180831161075657829003601f168201915b50505050509080600301805461078890611af1565b80601f01602080910402602001604051908101604052809291908181526020018280546107b490611af1565b80156108015780601f106107d657610100808354040283529160200191610801565b820191906000526020600020905b8154815290600101906020018083116107e457829003601f168201915b5050505050908060040160009054906101000a900473ffffffffffffffffffffffffffffffffffffffff16905085565b60606000805467ffffffffffffffff811115610876577f4e487b7100000000000000000000000000000000000000000000000000000000600052604160045260246000fd5b6040519080825280602002602001820160405280156108af57816020015b61089c61117e565b8152602001906001900390816108945790505b50905060005b600054811015610c6e57600260008281526020019081526020016000206040518060e0016040529081600082015481526020016001820180546108f790611af1565b80601f016020809104026020016040519081016040528092919081815260200182805461092390611af1565b80156109705780601f1061094557610100808354040283529160200191610970565b820191906000526020600020905b81548152906001019060200180831161095357829003601f168201915b5050505050815260200160028201805461098990611af1565b80601f01602080910402602001604051908101604052809291908181526020018280546109b590611af1565b8015610a025780601f106109d757610100808354040283529160200191610a02565b820191906000526020600020905b8154815290600101906020018083116109e557829003601f168201915b50505050508152602001600382018054610a1b90611af1565b80601f0160208091040260200160405190810160405280929190818152602001828054610a4790611af1565b8015610a945780601f10610a6957610100808354040283529160200191610a94565b820191906000526020600020905b815481529060010190602001808311610a7757829003601f168201915b50505050508152602001600482018054610aad90611af1565b80601f0160208091040260200160405190810160405280929190818152602001828054610ad990611af1565b8015610b265780601f10610afb57610100808354040283529160200191610b26565b820191906000526020600020905b815481529060010190602001808311610b0957829003601f168201915b50505050508152602001600582018054610b3f90611af1565b80601f0160208091040260200160405190810160405280929190818152602001828054610b6b90611af1565b8015610bb85780601f10610b8d57610100808354040283529160200191610bb8565b820191906000526020600020905b815481529060010190602001808311610b9b57829003601f168201915b505050505081526020016006820160009054906101000a900473ffffffffffffffffffffffffffffffffffffffff1673ffffffffffffffffffffffffffffffffffffffff1673ffffffffffffffffffffffffffffffffffffffff1681525050828281518110610c50577f4e487b7100000000000000000000000000000000000000000000000000000000600052603260045260246000fd5b60200260200101819052508080610c6690611b54565b9150506108b5565b508091505090565b60005481565b60606000805467ffffffffffffffff811115610cc1577f4e487b7100000000000000000000000000000000000000000000000000000000600052604160045260246000fd5b604051908082528060200260200182016040528015610cfa57816020015b610ce76111d1565b815260200190600190039081610cdf5790505b50905060005b600154811015610f9557600360008281526020019081526020016000206040518060a001604052908160008201548152602001600182018054610d4290611af1565b80601f0160208091040260200160405190810160405280929190818152602001828054610d6e90611af1565b8015610dbb5780601f10610d9057610100808354040283529160200191610dbb565b820191906000526020600020905b815481529060010190602001808311610d9e57829003601f168201915b50505050508152602001600282018054610dd490611af1565b80601f0160208091040260200160405190810160405280929190818152602001828054610e0090611af1565b8015610e4d5780601f10610e2257610100808354040283529160200191610e4d565b820191906000526020600020905b815481529060010190602001808311610e3057829003601f168201915b50505050508152602001600382018054610e6690611af1565b80601f0160208091040260200160405190810160405280929190818152602001828054610e9290611af1565b8015610edf5780601f10610eb457610100808354040283529160200191610edf565b820191906000526020600020905b815481529060010190602001808311610ec257829003601f168201915b505050505081526020016004820160009054906101000a900473ffffffffffffffffffffffffffffffffffffffff1673ffffffffffffffffffffffffffffffffffffffff1673ffffffffffffffffffffffffffffffffffffffff1681525050828281518110610f77577f4e487b7100000000000000000000000000000000000000000000000000000000600052603260045260246000fd5b60200260200101819052508080610f8d90611b54565b915050610d00565b508091505090565b6040518060a0016040528060015481526020018481526020018381526020018281526020013373ffffffffffffffffffffffffffffffffffffffff168152506003600060015481526020019081526020016000206000820151816000015560208201518160010190805190602001906110179291906110f8565b5060408201518160020190805190602001906110349291906110f8565b5060608201518160030190805190602001906110519291906110f8565b5060808201518160040160006101000a81548173ffffffffffffffffffffffffffffffffffffffff021916908373ffffffffffffffffffffffffffffffffffffffff160217905550905050600160008154809291906110af90611b54565b91905055507f0f387bd84ca9e027b73cc440573df8abda3d380b2dc2a6f8b8d9e6002c6a61126001548484846040516110eb94939291906117a6565b60405180910390a1505050565b82805461110490611af1565b90600052602060002090601f016020900481019282611126576000855561116d565b82601f1061113f57805160ff191683800117855561116d565b8280016001018555821561116d579182015b8281111561116c578251825591602001919060010190611151565b5b50905061117a9190611216565b5090565b6040518060e00160405280600081526020016060815260200160608152602001606081526020016060815260200160608152602001600073ffffffffffffffffffffffffffffffffffffffff1681525090565b6040518060a0016040528060008152602001606081526020016060815260200160608152602001600073ffffffffffffffffffffffffffffffffffffffff1681525090565b5b8082111561122f576000816000905550600101611217565b5090565b6000611246611241846119a3565b61197e565b90508281526020810184848401111561125e57600080fd5b611269848285611aaf565b509392505050565b600082601f83011261128257600080fd5b8135611292848260208601611233565b91505092915050565b6000813590506112aa81611c3b565b92915050565b600080600080600080600080610100898b0312156112cd57600080fd5b600089013567ffffffffffffffff8111156112e757600080fd5b6112f38b828c01611271565b985050602089013567ffffffffffffffff81111561131057600080fd5b61131c8b828c01611271565b975050604089013567ffffffffffffffff81111561133957600080fd5b6113458b828c01611271565b965050606089013567ffffffffffffffff81111561136257600080fd5b61136e8b828c01611271565b955050608089013567ffffffffffffffff81111561138b57600080fd5b6113978b828c01611271565b94505060a089013567ffffffffffffffff8111156113b457600080fd5b6113c08b828c01611271565b93505060c089013567ffffffffffffffff8111156113dd57600080fd5b6113e98b828c01611271565b92505060e089013567ffffffffffffffff81111561140657600080fd5b6114128b828c01611271565b9150509295985092959890939650565b60006020828403121561143457600080fd5b60006114428482850161129b565b91505092915050565b600061145783836115ed565b905092915050565b600061146b83836116a5565b905092915050565b61147c81611a73565b82525050565b61148b81611a73565b82525050565b600061149c826119f4565b6114a68185611a2f565b9350836020820285016114b8856119d4565b8060005b858110156114f457848403895281516114d5858261144b565b94506114e083611a15565b925060208a019950506001810190506114bc565b50829750879550505050505092915050565b6000611511826119ff565b61151b8185611a40565b93508360208202850161152d856119e4565b8060005b85811015611569578484038952815161154a858261145f565b945061155583611a22565b925060208a01995050600181019050611531565b50829750879550505050505092915050565b600061158682611a0a565b6115908185611a51565b93506115a0818560208601611abe565b6115a981611c2a565b840191505092915050565b60006115bf82611a0a565b6115c98185611a62565b93506115d9818560208601611abe565b6115e281611c2a565b840191505092915050565b600060e0830160008301516116056000860182611729565b506020830151848203602086015261161d828261157b565b91505060408301518482036040860152611637828261157b565b91505060608301518482036060860152611651828261157b565b9150506080830151848203608086015261166b828261157b565b91505060a083015184820360a0860152611685828261157b565b91505060c083015161169a60c0860182611473565b508091505092915050565b600060a0830160008301516116bd6000860182611729565b50602083015184820360208601526116d5828261157b565b915050604083015184820360408601526116ef828261157b565b91505060608301518482036060860152611709828261157b565b915050608083015161171e6080860182611473565b508091505092915050565b61173281611aa5565b82525050565b61174181611aa5565b82525050565b600060208201905081810360008301526117618184611491565b905092915050565b600060208201905081810360008301526117838184611506565b905092915050565b60006020820190506117a06000830184611738565b92915050565b60006080820190506117bb6000830187611738565b81810360208301526117cd81866115b4565b905081810360408301526117e181856115b4565b905081810360608301526117f581846115b4565b905095945050505050565b600060a0820190506118156000830188611738565b818103602083015261182781876115b4565b9050818103604083015261183b81866115b4565b9050818103606083015261184f81856115b4565b905061185e6080830184611482565b9695505050505050565b600060c08201905061187d6000830189611738565b818103602083015261188f81886115b4565b905081810360408301526118a381876115b4565b905081810360608301526118b781866115b4565b905081810360808301526118cb81856115b4565b905081810360a08301526118df81846115b4565b9050979650505050505050565b600060e082019050611901600083018a611738565b818103602083015261191381896115b4565b9050818103604083015261192781886115b4565b9050818103606083015261193b81876115b4565b9050818103608083015261194f81866115b4565b905081810360a083015261196381856115b4565b905061197260c0830184611482565b98975050505050505050565b6000611988611999565b90506119948282611b23565b919050565b6000604051905090565b600067ffffffffffffffff8211156119be576119bd611bfb565b5b6119c782611c2a565b9050602081019050919050565b6000819050602082019050919050565b6000819050602082019050919050565b600081519050919050565b600081519050919050565b600081519050919050565b6000602082019050919050565b6000602082019050919050565b600082825260208201905092915050565b600082825260208201905092915050565b600082825260208201905092915050565b600082825260208201905092915050565b6000611a7e82611a85565b9050919050565b600073ffffffffffffffffffffffffffffffffffffffff82169050919050565b6000819050919050565b82818337600083830152505050565b60005b83811015611adc578082015181840152602081019050611ac1565b83811115611aeb576000848401525b50505050565b60006002820490506001821680611b0957607f821691505b60208210811415611b1d57611b1c611bcc565b5b50919050565b611b2c82611c2a565b810181811067ffffffffffffffff82111715611b4b57611b4a611bfb565b5b80604052505050565b6000611b5f82611aa5565b91507fffffffffffffffffffffffffffffffffffffffffffffffffffffffffffffffff821415611b9257611b91611b9d565b5b600182019050919050565b7f4e487b7100000000000000000000000000000000000000000000000000000000600052601160045260246000fd5b7f4e487b7100000000000000000000000000000000000000000000000000000000600052602260045260246000fd5b7f4e487b7100000000000000000000000000000000000000000000000000000000600052604160045260246000fd5b6000601f19601f8301169050919050565b611c4481611aa5565b8114611c4f57600080fd5b5056fea2646970667358221220d05a8779b32a80ed55c33f8a06e66c6732956c3406947346b442087cbd7204dd64736f6c63430008040033",
  "immutableReferences": {},
  "source": "// SPDX-License-Identifier: MIT\npragma solidity ^0.8.4;\npragma experimental ABIEncoderV2;\n\n/*import \"@openzeppelin/contracts/access/Ownable.sol\";*/\n\ncontract BikeContract {\n\n  uint public bikeCounter = 0;\n  uint public ownerCounter = 0;\n\n  struct bikeDetails {\n    uint bikeID;\n    string make;\n    string model;\n    string colour;\n    string typeBike;\n    string frame_no;\n    address user_address;\n  }\n\n  struct ownerDetails {\n    uint ownerID;\n    string name;\n    string contact_no;\n    string email;\n    address user_address;\n  }\n\n  mapping(uint => bikeDetails) public bikes;\n\n  mapping(uint => ownerDetails) public owner;\n\n  event BikeCreated(\n    uint bikeID,\n    string make,\n    string model,\n    string colour,\n    string typeBike,\n    string frame_no\n  );\n\n  event OwnerAdded(\n    uint ownerID,\n    string name,\n    string contact_no,\n    string email\n  );\n\n/*\n  event BikeSMCreated(\n    string frame_no,\n    string name,\n    string contact_no,\n    string email\n  );\n*/\n\n  function newBikeSM(string memory _make, string memory _model, string memory _colour, string memory _type, string memory _frame_no, string memory _name, string memory _contact_no, string memory _email) public {\n    bikes[bikeCounter] = bikeDetails(bikeCounter, _make, _model, _colour, _type, _frame_no, msg.sender);\n    bikeCounter++;\n    emit BikeCreated(bikeCounter, _make, _model, _colour, _type, _frame_no);\n    _newOwner(_name, _contact_no, _email);\n  }\n\n  function _newOwner(string memory _name, string memory _contact_no, string memory _email) private {\n    owner[ownerCounter] = ownerDetails(ownerCounter, _name, _contact_no, _email, msg.sender);\n    ownerCounter++;\n    emit OwnerAdded(ownerCounter, _name, _contact_no, _email);\n  }\n\n  function showBikeDetails() public view returns (bikeDetails[] memory) {\n    bikeDetails[] memory _bikes = new bikeDetails[](bikeCounter);\n    for (uint i = 0; i < bikeCounter; i++) {\n        _bikes[i] = bikes[i];\n    }\n    return _bikes;\n  }\n\n    function showOwnerDetails() public view returns (ownerDetails[] memory) {\n    ownerDetails[] memory _owner = new ownerDetails[](bikeCounter);\n    for (uint i = 0; i < ownerCounter; i++) {\n        _owner[i] = owner[i];\n    }\n    return _owner;\n  }\n}",
  "sourcePath": "C:/Users/Enrico/Desktop/Projects/x20132484_HDBC_SEPOL_PROJECT/contracts/BikeContract.sol",
  "compiler": {
    "name": "solc",
    "version": "0.8.4+commit.c7e474f2.Emscripten.clang"
  },
  "schemaVersion": "3.4.1",
  "updatedAt": "2021-07-16T17:17:41.414Z",
  "networkType": "ethereum",
  "devdoc": {
    "kind": "dev",
    "methods": {},
    "version": 1
  },
  "userdoc": {
    "kind": "user",
    "methods": {},
    "version": 1
  }
}