{
  "contractName": "BikeContract",
  "abi": [
    {
      "anonymous": false,
      "inputs": [
        {
          "indexed": false,
          "internalType": "uint256",
          "name": "bikeID",
          "type": "uint256"
        },
        {
          "indexed": false,
          "internalType": "string",
          "name": "make",
          "type": "string"
        },
        {
          "indexed": false,
          "internalType": "string",
          "name": "model",
          "type": "string"
        },
        {
          "indexed": false,
          "internalType": "string",
          "name": "colour",
          "type": "string"
        },
        {
          "indexed": false,
          "internalType": "string",
          "name": "typeBike",
          "type": "string"
        },
        {
          "indexed": false,
          "internalType": "string",
          "name": "frame_no",
          "type": "string"
        },
        {
          "indexed": false,
          "internalType": "string",
          "name": "details",
          "type": "string"
        }
      ],
      "name": "BikeCreated",
      "type": "event"
    },
    {
      "anonymous": false,
      "inputs": [
        {
          "indexed": false,
          "internalType": "uint256",
          "name": "ownerID",
          "type": "uint256"
        },
        {
          "indexed": false,
          "internalType": "string",
          "name": "name",
          "type": "string"
        },
        {
          "indexed": false,
          "internalType": "string",
          "name": "contact_no",
          "type": "string"
        },
        {
          "indexed": false,
          "internalType": "string",
          "name": "email",
          "type": "string"
        }
      ],
      "name": "OwnerAdded",
      "type": "event"
    },
    {
      "anonymous": false,
      "inputs": [
        {
          "indexed": false,
          "internalType": "string",
          "name": "details",
          "type": "string"
        }
      ],
      "name": "detailsAdded",
      "type": "event"
    },
    {
      "anonymous": false,
      "inputs": [
        {
          "indexed": false,
          "internalType": "address",
          "name": "user_address",
          "type": "address"
        }
      ],
      "name": "renounceDone",
      "type": "event"
    },
    {
      "anonymous": false,
      "inputs": [
        {
          "indexed": false,
          "internalType": "address",
          "name": "user_address",
          "type": "address"
        }
      ],
      "name": "transferDone",
      "type": "event"
    },
    {
      "inputs": [],
      "name": "bikeCounter",
      "outputs": [
        {
          "internalType": "uint256",
          "name": "",
          "type": "uint256"
        }
      ],
      "stateMutability": "view",
      "type": "function",
      "constant": true
    },
    {
      "inputs": [
        {
          "internalType": "uint256",
          "name": "",
          "type": "uint256"
        }
      ],
      "name": "bikes",
      "outputs": [
        {
          "internalType": "uint256",
          "name": "bikeID",
          "type": "uint256"
        },
        {
          "internalType": "string",
          "name": "make",
          "type": "string"
        },
        {
          "internalType": "string",
          "name": "model",
          "type": "string"
        },
        {
          "internalType": "string",
          "name": "colour",
          "type": "string"
        },
        {
          "internalType": "string",
          "name": "typeBike",
          "type": "string"
        },
        {
          "internalType": "string",
          "name": "frame_no",
          "type": "string"
        },
        {
          "internalType": "string",
          "name": "details",
          "type": "string"
        },
        {
          "internalType": "address",
          "name": "user_address",
          "type": "address"
        }
      ],
      "stateMutability": "view",
      "type": "function",
      "constant": true
    },
    {
      "inputs": [],
      "name": "emptyAddress",
      "outputs": [
        {
          "internalType": "address",
          "name": "",
          "type": "address"
        }
      ],
      "stateMutability": "view",
      "type": "function",
      "constant": true
    },
    {
      "inputs": [
        {
          "internalType": "uint256",
          "name": "",
          "type": "uint256"
        }
      ],
      "name": "owner",
      "outputs": [
        {
          "internalType": "uint256",
          "name": "ownerID",
          "type": "uint256"
        },
        {
          "internalType": "string",
          "name": "name",
          "type": "string"
        },
        {
          "internalType": "string",
          "name": "contact_no",
          "type": "string"
        },
        {
          "internalType": "string",
          "name": "email",
          "type": "string"
        },
        {
          "internalType": "address",
          "name": "user_address",
          "type": "address"
        }
      ],
      "stateMutability": "view",
      "type": "function",
      "constant": true
    },
    {
      "inputs": [],
      "name": "ownerCounter",
      "outputs": [
        {
          "internalType": "uint256",
          "name": "",
          "type": "uint256"
        }
      ],
      "stateMutability": "view",
      "type": "function",
      "constant": true
    },
    {
      "inputs": [
        {
          "internalType": "string",
          "name": "_make",
          "type": "string"
        },
        {
          "internalType": "string",
          "name": "_model",
          "type": "string"
        },
        {
          "internalType": "string",
          "name": "_colour",
          "type": "string"
        },
        {
          "internalType": "string",
          "name": "_type",
          "type": "string"
        },
        {
          "internalType": "string",
          "name": "_frame_no",
          "type": "string"
        },
        {
          "internalType": "string",
          "name": "_details",
          "type": "string"
        },
        {
          "internalType": "string",
          "name": "_name",
          "type": "string"
        },
        {
          "internalType": "string",
          "name": "_contact_no",
          "type": "string"
        },
        {
          "internalType": "string",
          "name": "_email",
          "type": "string"
        }
      ],
      "name": "newBikeSM",
      "outputs": [],
      "stateMutability": "nonpayable",
      "type": "function"
    },
    {
      "inputs": [],
      "name": "showBikeDetails",
      "outputs": [
        {
          "components": [
            {
              "internalType": "uint256",
              "name": "bikeID",
              "type": "uint256"
            },
            {
              "internalType": "string",
              "name": "make",
              "type": "string"
            },
            {
              "internalType": "string",
              "name": "model",
              "type": "string"
            },
            {
              "internalType": "string",
              "name": "colour",
              "type": "string"
            },
            {
              "internalType": "string",
              "name": "typeBike",
              "type": "string"
            },
            {
              "internalType": "string",
              "name": "frame_no",
              "type": "string"
            },
            {
              "internalType": "string",
              "name": "details",
              "type": "string"
            },
            {
              "internalType": "address",
              "name": "user_address",
              "type": "address"
            }
          ],
          "internalType": "struct BikeContract.bikeDetails[]",
          "name": "",
          "type": "tuple[]"
        }
      ],
      "stateMutability": "view",
      "type": "function",
      "constant": true
    },
    {
      "inputs": [],
      "name": "showOwnerDetails",
      "outputs": [
        {
          "components": [
            {
              "internalType": "uint256",
              "name": "ownerID",
              "type": "uint256"
            },
            {
              "internalType": "string",
              "name": "name",
              "type": "string"
            },
            {
              "internalType": "string",
              "name": "contact_no",
              "type": "string"
            },
            {
              "internalType": "string",
              "name": "email",
              "type": "string"
            },
            {
              "internalType": "address",
              "name": "user_address",
              "type": "address"
            }
          ],
          "internalType": "struct BikeContract.ownerDetails[]",
          "name": "",
          "type": "tuple[]"
        }
      ],
      "stateMutability": "view",
      "type": "function",
      "constant": true
    },
    {
      "inputs": [
        {
          "internalType": "uint256",
          "name": "_id",
          "type": "uint256"
        },
        {
          "internalType": "string",
          "name": "_details",
          "type": "string"
        }
      ],
      "name": "addDetails",
      "outputs": [],
      "stateMutability": "nonpayable",
      "type": "function"
    },
    {
      "inputs": [
        {
          "internalType": "uint256",
          "name": "_id",
          "type": "uint256"
        },
        {
          "internalType": "address",
          "name": "_newAddress",
          "type": "address"
        }
      ],
      "name": "transferOwnership",
      "outputs": [],
      "stateMutability": "nonpayable",
      "type": "function"
    },
    {
      "inputs": [
        {
          "internalType": "uint256",
          "name": "_id",
          "type": "uint256"
        }
      ],
      "name": "renounceOwnership",
      "outputs": [],
      "stateMutability": "nonpayable",
      "type": "function"
    }
  ],
  "bytecode": "0x60806040526000805560006001556000600260006101000a81548173ffffffffffffffffffffffffffffffffffffffff021916908373ffffffffffffffffffffffffffffffffffffffff16021790555034801561005b57600080fd5b506121d28061006b6000396000f3fe608060405234801561001057600080fd5b50600436106100a95760003560e01c80635c526e19116100715780635c526e191461013e5780637d654c7f14610175578063a123c33e14610191578063d0c0dde4146101c5578063f9a48031146101e3578063fbd1427c14610201576100a9565b8063032ca3d4146100ae57806329507f73146100cc57806330943fcf146100e8578063382f25a114610106578063472edcd014610122575b600080fd5b6100b661021f565b6040516100c39190611c12565b60405180910390f35b6100e660048036038101906100e1919061186b565b610245565b005b6100f06102d5565b6040516100fd9190611c93565b60405180910390f35b610120600480360381019061011b91906116a4565b6102db565b005b61013c600480360381019061013791906118a7565b6104b5565b005b61015860048036038101906101539190611842565b61051b565b60405161016c989796959493929190611e09565b60405180910390f35b61018f600480360381019061018a9190611842565b6108b3565b005b6101ab60048036038101906101a69190611842565b610986565b6040516101bc959493929190611d08565b60405180910390f35b6101cd610b74565b6040516101da9190611c2d565b60405180910390f35b6101eb61104c565b6040516101f89190611c93565b60405180910390f35b610209611052565b6040516102169190611c4f565b60405180910390f35b600260009054906101000a900473ffffffffffffffffffffffffffffffffffffffff1681565b806003600084815260200190815260200160002060070160006101000a81548173ffffffffffffffffffffffffffffffffffffffff021916908373ffffffffffffffffffffffffffffffffffffffff1602179055507ffa4bcbd7bae48d9d57db93b98948572cebc77330fa8e41fa51ea933f38dca2a1816040516102c99190611c12565b60405180910390a15050565b60015481565b60405180610100016040528060005481526020018a81526020018981526020018881526020018781526020018681526020018581526020013373ffffffffffffffffffffffffffffffffffffffff1681525060036000805481526020019081526020016000206000820151816000015560208201518160010190805190602001906103679291906114cf565b5060408201518160020190805190602001906103849291906114cf565b5060608201518160030190805190602001906103a19291906114cf565b5060808201518160040190805190602001906103be9291906114cf565b5060a08201518160050190805190602001906103db9291906114cf565b5060c08201518160060190805190602001906103f89291906114cf565b5060e08201518160070160006101000a81548173ffffffffffffffffffffffffffffffffffffffff021916908373ffffffffffffffffffffffffffffffffffffffff16021790555090505060008081548092919061045590612087565b91905055507fa862898981bb615c94096b1af912a4d7558372e5eeb2e433c75529698bd28edc6000548a8a8a8a8a8a6040516104979796959493929190611d70565b60405180910390a16104aa838383611374565b505050505050505050565b806003600084815260200190815260200160002060060190805190602001906104df9291906114cf565b507f726982f645aa011c5b29c51ed4e248885b77a8e5c41e05f4fc1e50c8ee986fc98160405161050f9190611c71565b60405180910390a15050565b600360205280600052604060002060009150905080600001549080600101805461054490612024565b80601f016020809104026020016040519081016040528092919081815260200182805461057090612024565b80156105bd5780601f10610592576101008083540402835291602001916105bd565b820191906000526020600020905b8154815290600101906020018083116105a057829003601f168201915b5050505050908060020180546105d290612024565b80601f01602080910402602001604051908101604052809291908181526020018280546105fe90612024565b801561064b5780601f106106205761010080835404028352916020019161064b565b820191906000526020600020905b81548152906001019060200180831161062e57829003601f168201915b50505050509080600301805461066090612024565b80601f016020809104026020016040519081016040528092919081815260200182805461068c90612024565b80156106d95780601f106106ae576101008083540402835291602001916106d9565b820191906000526020600020905b8154815290600101906020018083116106bc57829003601f168201915b5050505050908060040180546106ee90612024565b80601f016020809104026020016040519081016040528092919081815260200182805461071a90612024565b80156107675780601f1061073c57610100808354040283529160200191610767565b820191906000526020600020905b81548152906001019060200180831161074a57829003601f168201915b50505050509080600501805461077c90612024565b80601f01602080910402602001604051908101604052809291908181526020018280546107a890612024565b80156107f55780601f106107ca576101008083540402835291602001916107f5565b820191906000526020600020905b8154815290600101906020018083116107d857829003601f168201915b50505050509080600601805461080a90612024565b80601f016020809104026020016040519081016040528092919081815260200182805461083690612024565b80156108835780601f1061085857610100808354040283529160200191610883565b820191906000526020600020905b81548152906001019060200180831161086657829003601f168201915b5050505050908060070160009054906101000a900473ffffffffffffffffffffffffffffffffffffffff16905088565b600260009054906101000a900473ffffffffffffffffffffffffffffffffffffffff166003600083815260200190815260200160002060070160006101000a81548173ffffffffffffffffffffffffffffffffffffffff021916908373ffffffffffffffffffffffffffffffffffffffff1602179055507f2ccd6c888cce49d87141ab0e9f17b17e7fd5ca376879d7d85db65ba47cc9acae600260009054906101000a900473ffffffffffffffffffffffffffffffffffffffff1660405161097b9190611c12565b60405180910390a150565b60046020528060005260406000206000915090508060000154908060010180546109af90612024565b80601f01602080910402602001604051908101604052809291908181526020018280546109db90612024565b8015610a285780601f106109fd57610100808354040283529160200191610a28565b820191906000526020600020905b815481529060010190602001808311610a0b57829003601f168201915b505050505090806002018054610a3d90612024565b80601f0160208091040260200160405190810160405280929190818152602001828054610a6990612024565b8015610ab65780601f10610a8b57610100808354040283529160200191610ab6565b820191906000526020600020905b815481529060010190602001808311610a9957829003601f168201915b505050505090806003018054610acb90612024565b80601f0160208091040260200160405190810160405280929190818152602001828054610af790612024565b8015610b445780601f10610b1957610100808354040283529160200191610b44565b820191906000526020600020905b815481529060010190602001808311610b2757829003601f168201915b5050505050908060040160009054906101000a900473ffffffffffffffffffffffffffffffffffffffff16905085565b60606000805467ffffffffffffffff811115610bb9577f4e487b7100000000000000000000000000000000000000000000000000000000600052604160045260246000fd5b604051908082528060200260200182016040528015610bf257816020015b610bdf611555565b815260200190600190039081610bd75790505b50905060005b60005481101561104457600360008281526020019081526020016000206040518061010001604052908160008201548152602001600182018054610c3b90612024565b80601f0160208091040260200160405190810160405280929190818152602001828054610c6790612024565b8015610cb45780601f10610c8957610100808354040283529160200191610cb4565b820191906000526020600020905b815481529060010190602001808311610c9757829003601f168201915b50505050508152602001600282018054610ccd90612024565b80601f0160208091040260200160405190810160405280929190818152602001828054610cf990612024565b8015610d465780601f10610d1b57610100808354040283529160200191610d46565b820191906000526020600020905b815481529060010190602001808311610d2957829003601f168201915b50505050508152602001600382018054610d5f90612024565b80601f0160208091040260200160405190810160405280929190818152602001828054610d8b90612024565b8015610dd85780601f10610dad57610100808354040283529160200191610dd8565b820191906000526020600020905b815481529060010190602001808311610dbb57829003601f168201915b50505050508152602001600482018054610df190612024565b80601f0160208091040260200160405190810160405280929190818152602001828054610e1d90612024565b8015610e6a5780601f10610e3f57610100808354040283529160200191610e6a565b820191906000526020600020905b815481529060010190602001808311610e4d57829003601f168201915b50505050508152602001600582018054610e8390612024565b80601f0160208091040260200160405190810160405280929190818152602001828054610eaf90612024565b8015610efc5780601f10610ed157610100808354040283529160200191610efc565b820191906000526020600020905b815481529060010190602001808311610edf57829003601f168201915b50505050508152602001600682018054610f1590612024565b80601f0160208091040260200160405190810160405280929190818152602001828054610f4190612024565b8015610f8e5780601f10610f6357610100808354040283529160200191610f8e565b820191906000526020600020905b815481529060010190602001808311610f7157829003601f168201915b505050505081526020016007820160009054906101000a900473ffffffffffffffffffffffffffffffffffffffff1673ffffffffffffffffffffffffffffffffffffffff1673ffffffffffffffffffffffffffffffffffffffff1681525050828281518110611026577f4e487b7100000000000000000000000000000000000000000000000000000000600052603260045260246000fd5b6020026020010181905250808061103c90612087565b915050610bf8565b508091505090565b60005481565b6060600060015467ffffffffffffffff811115611098577f4e487b7100000000000000000000000000000000000000000000000000000000600052604160045260246000fd5b6040519080825280602002602001820160405280156110d157816020015b6110be6115b0565b8152602001906001900390816110b65790505b50905060005b60015481101561136c57600460008281526020019081526020016000206040518060a00160405290816000820154815260200160018201805461111990612024565b80601f016020809104026020016040519081016040528092919081815260200182805461114590612024565b80156111925780601f1061116757610100808354040283529160200191611192565b820191906000526020600020905b81548152906001019060200180831161117557829003601f168201915b505050505081526020016002820180546111ab90612024565b80601f01602080910402602001604051908101604052809291908181526020018280546111d790612024565b80156112245780601f106111f957610100808354040283529160200191611224565b820191906000526020600020905b81548152906001019060200180831161120757829003601f168201915b5050505050815260200160038201805461123d90612024565b80601f016020809104026020016040519081016040528092919081815260200182805461126990612024565b80156112b65780601f1061128b576101008083540402835291602001916112b6565b820191906000526020600020905b81548152906001019060200180831161129957829003601f168201915b505050505081526020016004820160009054906101000a900473ffffffffffffffffffffffffffffffffffffffff1673ffffffffffffffffffffffffffffffffffffffff1673ffffffffffffffffffffffffffffffffffffffff168152505082828151811061134e577f4e487b7100000000000000000000000000000000000000000000000000000000600052603260045260246000fd5b6020026020010181905250808061136490612087565b9150506110d7565b508091505090565b6040518060a0016040528060015481526020018481526020018381526020018281526020013373ffffffffffffffffffffffffffffffffffffffff168152506004600060015481526020019081526020016000206000820151816000015560208201518160010190805190602001906113ee9291906114cf565b50604082015181600201908051906020019061140b9291906114cf565b5060608201518160030190805190602001906114289291906114cf565b5060808201518160040160006101000a81548173ffffffffffffffffffffffffffffffffffffffff021916908373ffffffffffffffffffffffffffffffffffffffff1602179055509050506001600081548092919061148690612087565b91905055507f0f387bd84ca9e027b73cc440573df8abda3d380b2dc2a6f8b8d9e6002c6a61126001548484846040516114c29493929190611cae565b60405180910390a1505050565b8280546114db90612024565b90600052602060002090601f0160209004810192826114fd5760008555611544565b82601f1061151657805160ff1916838001178555611544565b82800160010185558215611544579182015b82811115611543578251825591602001919060010190611528565b5b50905061155191906115f5565b5090565b60405180610100016040528060008152602001606081526020016060815260200160608152602001606081526020016060815260200160608152602001600073ffffffffffffffffffffffffffffffffffffffff1681525090565b6040518060a0016040528060008152602001606081526020016060815260200160608152602001600073ffffffffffffffffffffffffffffffffffffffff1681525090565b5b8082111561160e5760008160009055506001016115f6565b5090565b600061162561162084611ed6565b611eb1565b90508281526020810184848401111561163d57600080fd5b611648848285611fe2565b509392505050565b60008135905061165f8161216e565b92915050565b600082601f83011261167657600080fd5b8135611686848260208601611612565b91505092915050565b60008135905061169e81612185565b92915050565b60008060008060008060008060006101208a8c0312156116c357600080fd5b60008a013567ffffffffffffffff8111156116dd57600080fd5b6116e98c828d01611665565b99505060208a013567ffffffffffffffff81111561170657600080fd5b6117128c828d01611665565b98505060408a013567ffffffffffffffff81111561172f57600080fd5b61173b8c828d01611665565b97505060608a013567ffffffffffffffff81111561175857600080fd5b6117648c828d01611665565b96505060808a013567ffffffffffffffff81111561178157600080fd5b61178d8c828d01611665565b95505060a08a013567ffffffffffffffff8111156117aa57600080fd5b6117b68c828d01611665565b94505060c08a013567ffffffffffffffff8111156117d357600080fd5b6117df8c828d01611665565b93505060e08a013567ffffffffffffffff8111156117fc57600080fd5b6118088c828d01611665565b9250506101008a013567ffffffffffffffff81111561182657600080fd5b6118328c828d01611665565b9150509295985092959850929598565b60006020828403121561185457600080fd5b60006118628482850161168f565b91505092915050565b6000806040838503121561187e57600080fd5b600061188c8582860161168f565b925050602061189d85828601611650565b9150509250929050565b600080604083850312156118ba57600080fd5b60006118c88582860161168f565b925050602083013567ffffffffffffffff8111156118e557600080fd5b6118f185828601611665565b9150509250929050565b60006119078383611a9d565b905092915050565b600061191b8383611b70565b905092915050565b61192c81611fa6565b82525050565b61193b81611fa6565b82525050565b600061194c82611f27565b6119568185611f62565b93508360208202850161196885611f07565b8060005b858110156119a4578484038952815161198585826118fb565b945061199083611f48565b925060208a0199505060018101905061196c565b50829750879550505050505092915050565b60006119c182611f32565b6119cb8185611f73565b9350836020820285016119dd85611f17565b8060005b85811015611a1957848403895281516119fa858261190f565b9450611a0583611f55565b925060208a019950506001810190506119e1565b50829750879550505050505092915050565b6000611a3682611f3d565b611a408185611f84565b9350611a50818560208601611ff1565b611a598161215d565b840191505092915050565b6000611a6f82611f3d565b611a798185611f95565b9350611a89818560208601611ff1565b611a928161215d565b840191505092915050565b600061010083016000830151611ab66000860182611bf4565b5060208301518482036020860152611ace8282611a2b565b91505060408301518482036040860152611ae88282611a2b565b91505060608301518482036060860152611b028282611a2b565b91505060808301518482036080860152611b1c8282611a2b565b91505060a083015184820360a0860152611b368282611a2b565b91505060c083015184820360c0860152611b508282611a2b565b91505060e0830151611b6560e0860182611923565b508091505092915050565b600060a083016000830151611b886000860182611bf4565b5060208301518482036020860152611ba08282611a2b565b91505060408301518482036040860152611bba8282611a2b565b91505060608301518482036060860152611bd48282611a2b565b9150506080830151611be96080860182611923565b508091505092915050565b611bfd81611fd8565b82525050565b611c0c81611fd8565b82525050565b6000602082019050611c276000830184611932565b92915050565b60006020820190508181036000830152611c478184611941565b905092915050565b60006020820190508181036000830152611c6981846119b6565b905092915050565b60006020820190508181036000830152611c8b8184611a64565b905092915050565b6000602082019050611ca86000830184611c03565b92915050565b6000608082019050611cc36000830187611c03565b8181036020830152611cd58186611a64565b90508181036040830152611ce98185611a64565b90508181036060830152611cfd8184611a64565b905095945050505050565b600060a082019050611d1d6000830188611c03565b8181036020830152611d2f8187611a64565b90508181036040830152611d438186611a64565b90508181036060830152611d578185611a64565b9050611d666080830184611932565b9695505050505050565b600060e082019050611d85600083018a611c03565b8181036020830152611d978189611a64565b90508181036040830152611dab8188611a64565b90508181036060830152611dbf8187611a64565b90508181036080830152611dd38186611a64565b905081810360a0830152611de78185611a64565b905081810360c0830152611dfb8184611a64565b905098975050505050505050565b600061010082019050611e1f600083018b611c03565b8181036020830152611e31818a611a64565b90508181036040830152611e458189611a64565b90508181036060830152611e598188611a64565b90508181036080830152611e6d8187611a64565b905081810360a0830152611e818186611a64565b905081810360c0830152611e958185611a64565b9050611ea460e0830184611932565b9998505050505050505050565b6000611ebb611ecc565b9050611ec78282612056565b919050565b6000604051905090565b600067ffffffffffffffff821115611ef157611ef061212e565b5b611efa8261215d565b9050602081019050919050565b6000819050602082019050919050565b6000819050602082019050919050565b600081519050919050565b600081519050919050565b600081519050919050565b6000602082019050919050565b6000602082019050919050565b600082825260208201905092915050565b600082825260208201905092915050565b600082825260208201905092915050565b600082825260208201905092915050565b6000611fb182611fb8565b9050919050565b600073ffffffffffffffffffffffffffffffffffffffff82169050919050565b6000819050919050565b82818337600083830152505050565b60005b8381101561200f578082015181840152602081019050611ff4565b8381111561201e576000848401525b50505050565b6000600282049050600182168061203c57607f821691505b602082108114156120505761204f6120ff565b5b50919050565b61205f8261215d565b810181811067ffffffffffffffff8211171561207e5761207d61212e565b5b80604052505050565b600061209282611fd8565b91507fffffffffffffffffffffffffffffffffffffffffffffffffffffffffffffffff8214156120c5576120c46120d0565b5b600182019050919050565b7f4e487b7100000000000000000000000000000000000000000000000000000000600052601160045260246000fd5b7f4e487b7100000000000000000000000000000000000000000000000000000000600052602260045260246000fd5b7f4e487b7100000000000000000000000000000000000000000000000000000000600052604160045260246000fd5b6000601f19601f8301169050919050565b61217781611fa6565b811461218257600080fd5b50565b61218e81611fd8565b811461219957600080fd5b5056fea2646970667358221220b3f25fb0cf44de140bcc3fd480452e5e96f76c0d63b4b4090d04a162bf09e60b64736f6c63430008040033",
  "immutableReferences": {},
  "source": "// SPDX-License-Identifier: MIT\npragma solidity ^0.8.4;\npragma experimental ABIEncoderV2;\n\n/*import \"@openzeppelin/contracts/access/Ownable.sol\";*/\n\ncontract BikeContract {\n\n  uint public bikeCounter = 0;\n  uint public ownerCounter = 0;\n  address public emptyAddress = 0x0000000000000000000000000000000000000000;\n\n  struct bikeDetails {\n    uint bikeID;\n    string make;\n    string model;\n    string colour;\n    string typeBike;\n    string frame_no;\n    string details;\n    address user_address;\n  }\n\n  struct ownerDetails {\n    uint ownerID;\n    string name;\n    string contact_no;\n    string email;\n    address user_address;\n  }\n\n  mapping(uint => bikeDetails) public bikes;\n\n  mapping(uint => ownerDetails) public owner;\n\n  event BikeCreated(\n    uint bikeID,\n    string make,\n    string model,\n    string colour,\n    string typeBike,\n    string frame_no,\n    string details\n  );\n\n  event OwnerAdded(\n    uint ownerID,\n    string name,\n    string contact_no,\n    string email\n  );\n\n    event detailsAdded(\n      string details\n  );\n\n      event transferDone(\n      address user_address\n  );\n\n      event renounceDone(\n      address user_address\n  );\n\n  function newBikeSM(string memory _make, string memory _model, string memory _colour, string memory _type, string memory _frame_no, string memory _details, string memory _name, string memory _contact_no, string memory _email) public {\n    bikes[bikeCounter] = bikeDetails(bikeCounter, _make, _model, _colour, _type, _frame_no, _details, msg.sender);\n    bikeCounter++;\n    emit BikeCreated(bikeCounter, _make, _model, _colour, _type, _frame_no, _details);\n    _newOwner(_name, _contact_no, _email);\n  }\n\n  function _newOwner(string memory _name, string memory _contact_no, string memory _email) private {\n    owner[ownerCounter] = ownerDetails(ownerCounter, _name, _contact_no, _email, msg.sender);\n    ownerCounter++;\n    emit OwnerAdded(ownerCounter, _name, _contact_no, _email);\n  }\n\n  function showBikeDetails() public view returns (bikeDetails[] memory) {\n    bikeDetails[] memory _bikes = new bikeDetails[](bikeCounter);\n    for (uint i = 0; i < bikeCounter; i++) {\n        _bikes[i] = bikes[i];\n    }\n    return _bikes;\n  }\n\n  function showOwnerDetails() public view returns (ownerDetails[] memory) {\n    ownerDetails[] memory _owner = new ownerDetails[](ownerCounter);\n    for (uint i = 0; i < ownerCounter; i++) {\n        _owner[i] = owner[i];\n    }\n    return _owner;\n  }\n\n  function addDetails(uint _id, string memory _details) public {\n      bikes[_id].details = _details;\n      emit detailsAdded(_details);\n  }\n\n  function transferOwnership(uint _id, address _newAddress) public {\n      bikes[_id].user_address = _newAddress;\n      emit transferDone(_newAddress);\n  }\n\n  function renounceOwnership(uint _id) public {\n      bikes[_id].user_address = emptyAddress;\n      emit renounceDone(emptyAddress);\n  }\n}",
  "sourcePath": "C:/Users/Enrico/Desktop/Projects/x20132484_HDBC_SEPOL_PROJECT/contracts/BikeContract.sol",
  "compiler": {
    "name": "solc",
    "version": "0.8.4+commit.c7e474f2.Emscripten.clang"
  },
  "schemaVersion": "3.4.1",
  "updatedAt": "2021-07-18T11:11:45.543Z",
  "networkType": "ethereum",
  "devdoc": {
    "kind": "dev",
    "methods": {},
    "version": 1
  },
  "userdoc": {
    "kind": "user",
    "methods": {},
    "version": 1
  }
}