{
  "contractName": "BikeContract",
  "abi": [
    {
      "anonymous": false,
      "inputs": [
        {
          "indexed": false,
          "internalType": "uint256",
          "name": "bikeID",
          "type": "uint256"
        },
        {
          "indexed": false,
          "internalType": "string",
          "name": "make",
          "type": "string"
        },
        {
          "indexed": false,
          "internalType": "string",
          "name": "model",
          "type": "string"
        },
        {
          "indexed": false,
          "internalType": "string",
          "name": "frame",
          "type": "string"
        },
        {
          "indexed": false,
          "internalType": "string",
          "name": "details",
          "type": "string"
        }
      ],
      "name": "BikeCreated",
      "type": "event"
    },
    {
      "anonymous": false,
      "inputs": [
        {
          "indexed": false,
          "internalType": "uint256",
          "name": "ownerID",
          "type": "uint256"
        },
        {
          "indexed": false,
          "internalType": "string",
          "name": "name",
          "type": "string"
        },
        {
          "indexed": false,
          "internalType": "string",
          "name": "email",
          "type": "string"
        }
      ],
      "name": "OwnerAdded",
      "type": "event"
    },
    {
      "anonymous": false,
      "inputs": [
        {
          "indexed": false,
          "internalType": "uint256",
          "name": "ownerID",
          "type": "uint256"
        },
        {
          "indexed": false,
          "internalType": "string",
          "name": "name",
          "type": "string"
        },
        {
          "indexed": false,
          "internalType": "string",
          "name": "email",
          "type": "string"
        }
      ],
      "name": "OwnerUpdated",
      "type": "event"
    },
    {
      "anonymous": false,
      "inputs": [
        {
          "indexed": false,
          "internalType": "uint256",
          "name": "id",
          "type": "uint256"
        },
        {
          "indexed": false,
          "internalType": "string",
          "name": "details",
          "type": "string"
        }
      ],
      "name": "detailsAdded",
      "type": "event"
    },
    {
      "anonymous": false,
      "inputs": [
        {
          "indexed": false,
          "internalType": "uint256",
          "name": "id",
          "type": "uint256"
        },
        {
          "indexed": false,
          "internalType": "address",
          "name": "user_address",
          "type": "address"
        }
      ],
      "name": "renounceDone",
      "type": "event"
    },
    {
      "anonymous": false,
      "inputs": [
        {
          "indexed": false,
          "internalType": "uint256",
          "name": "ownerID",
          "type": "uint256"
        },
        {
          "indexed": false,
          "internalType": "address",
          "name": "user_address",
          "type": "address"
        }
      ],
      "name": "transferDone",
      "type": "event"
    },
    {
      "inputs": [
        {
          "internalType": "uint256",
          "name": "",
          "type": "uint256"
        }
      ],
      "name": "bikes",
      "outputs": [
        {
          "internalType": "uint256",
          "name": "bikeID",
          "type": "uint256"
        },
        {
          "internalType": "string",
          "name": "make",
          "type": "string"
        },
        {
          "internalType": "string",
          "name": "model",
          "type": "string"
        },
        {
          "internalType": "string",
          "name": "frame",
          "type": "string"
        },
        {
          "internalType": "string",
          "name": "details",
          "type": "string"
        },
        {
          "internalType": "address",
          "name": "user_address",
          "type": "address"
        }
      ],
      "stateMutability": "view",
      "type": "function",
      "constant": true
    },
    {
      "inputs": [
        {
          "internalType": "uint256",
          "name": "",
          "type": "uint256"
        }
      ],
      "name": "owner",
      "outputs": [
        {
          "internalType": "uint256",
          "name": "ownerID",
          "type": "uint256"
        },
        {
          "internalType": "string",
          "name": "name",
          "type": "string"
        },
        {
          "internalType": "string",
          "name": "email",
          "type": "string"
        }
      ],
      "stateMutability": "view",
      "type": "function",
      "constant": true
    },
    {
      "inputs": [
        {
          "internalType": "string",
          "name": "_make",
          "type": "string"
        },
        {
          "internalType": "string",
          "name": "_model",
          "type": "string"
        },
        {
          "internalType": "string",
          "name": "_frame",
          "type": "string"
        },
        {
          "internalType": "string",
          "name": "_details",
          "type": "string"
        },
        {
          "internalType": "string",
          "name": "_name",
          "type": "string"
        },
        {
          "internalType": "string",
          "name": "_email",
          "type": "string"
        }
      ],
      "name": "newBike",
      "outputs": [],
      "stateMutability": "nonpayable",
      "type": "function"
    },
    {
      "inputs": [],
      "name": "showListBikeDetails",
      "outputs": [
        {
          "components": [
            {
              "internalType": "uint256",
              "name": "bikeID",
              "type": "uint256"
            },
            {
              "internalType": "string",
              "name": "make",
              "type": "string"
            },
            {
              "internalType": "string",
              "name": "model",
              "type": "string"
            },
            {
              "internalType": "string",
              "name": "frame",
              "type": "string"
            },
            {
              "internalType": "string",
              "name": "details",
              "type": "string"
            },
            {
              "internalType": "address",
              "name": "user_address",
              "type": "address"
            }
          ],
          "internalType": "struct BikeContract.bikeDetails[]",
          "name": "",
          "type": "tuple[]"
        }
      ],
      "stateMutability": "view",
      "type": "function",
      "constant": true
    },
    {
      "inputs": [
        {
          "internalType": "uint256",
          "name": "_bikeID",
          "type": "uint256"
        }
      ],
      "name": "showBikeDetails",
      "outputs": [
        {
          "internalType": "string",
          "name": "",
          "type": "string"
        },
        {
          "internalType": "string",
          "name": "",
          "type": "string"
        },
        {
          "internalType": "string",
          "name": "",
          "type": "string"
        }
      ],
      "stateMutability": "view",
      "type": "function",
      "constant": true
    },
    {
      "inputs": [
        {
          "internalType": "uint256",
          "name": "_ownerID",
          "type": "uint256"
        },
        {
          "internalType": "string",
          "name": "_name",
          "type": "string"
        },
        {
          "internalType": "string",
          "name": "_email",
          "type": "string"
        }
      ],
      "name": "updateOwner",
      "outputs": [],
      "stateMutability": "nonpayable",
      "type": "function"
    },
    {
      "inputs": [],
      "name": "showListOwnerDetails",
      "outputs": [
        {
          "components": [
            {
              "internalType": "uint256",
              "name": "ownerID",
              "type": "uint256"
            },
            {
              "internalType": "string",
              "name": "name",
              "type": "string"
            },
            {
              "internalType": "string",
              "name": "email",
              "type": "string"
            }
          ],
          "internalType": "struct BikeContract.ownerDetails[]",
          "name": "",
          "type": "tuple[]"
        }
      ],
      "stateMutability": "view",
      "type": "function",
      "constant": true
    },
    {
      "inputs": [
        {
          "internalType": "uint256",
          "name": "_ownerID",
          "type": "uint256"
        }
      ],
      "name": "showOwnerDetails",
      "outputs": [
        {
          "internalType": "string",
          "name": "",
          "type": "string"
        },
        {
          "internalType": "string",
          "name": "",
          "type": "string"
        }
      ],
      "stateMutability": "view",
      "type": "function",
      "constant": true
    },
    {
      "inputs": [
        {
          "internalType": "uint256",
          "name": "_id",
          "type": "uint256"
        },
        {
          "internalType": "string",
          "name": "_details",
          "type": "string"
        }
      ],
      "name": "addDetails",
      "outputs": [],
      "stateMutability": "nonpayable",
      "type": "function"
    },
    {
      "inputs": [
        {
          "internalType": "uint256",
          "name": "_id",
          "type": "uint256"
        },
        {
          "internalType": "address",
          "name": "_newAddress",
          "type": "address"
        }
      ],
      "name": "transferOwnership",
      "outputs": [],
      "stateMutability": "nonpayable",
      "type": "function"
    },
    {
      "inputs": [
        {
          "internalType": "uint256",
          "name": "_id",
          "type": "uint256"
        }
      ],
      "name": "renounceOwnership",
      "outputs": [],
      "stateMutability": "nonpayable",
      "type": "function"
    }
  ],
  "bytecode": "0x60806040526000805560006001556000600260006101000a81548173ffffffffffffffffffffffffffffffffffffffff021916908373ffffffffffffffffffffffffffffffffffffffff16021790555034801561005b57600080fd5b506120078061006b6000396000f3fe608060405234801561001057600080fd5b50600436106100a95760003560e01c80636ec2361d116100715780636ec2361d146101555780637cd0520c146101875780637d654c7f146101b85780638b284a85146101d4578063a123c33e146101f0578063dd79910914610222576100a9565b806309ee2e95146100ae578063142ec2e2146100cc57806329507f73146100e8578063472edcd0146101045780635c526e1914610120575b600080fd5b6100b6610240565b6040516100c39190611ab7565b60405180910390f35b6100e660048036038101906100e1919061158f565b61047a565b005b61010260048036038101906100fd91906116d1565b610605565b005b61011e6004803603810190610119919061170d565b610697565b005b61013a600480360381019061013591906116a8565b6106ff565b60405161014c96959493929190611c69565b60405180910390f35b61016f600480360381019061016a91906116a8565b61097b565b60405161017e93929190611b10565b60405180910390f35b6101a1600480360381019061019c91906116a8565b610b73565b6040516101af929190611ad9565b60405180910390f35b6101d260048036038101906101cd91906116a8565b610cc3565b005b6101ee60048036038101906101e99190611761565b610d98565b005b61020a600480360381019061020591906116a8565b610e2e565b60405161021993929190611bb5565b60405180910390f35b61022a610f68565b6040516102379190611a95565b60405180910390f35b6060600060015467ffffffffffffffff811115610286577f4e487b7100000000000000000000000000000000000000000000000000000000600052604160045260246000fd5b6040519080825280602002602001820160405280156102bf57816020015b6102ac6113ed565b8152602001906001900390816102a45790505b50905060005b60015481101561047257600460008281526020019081526020016000206040518060600160405290816000820154815260200160018201805461030790611e59565b80601f016020809104026020016040519081016040528092919081815260200182805461033390611e59565b80156103805780601f1061035557610100808354040283529160200191610380565b820191906000526020600020905b81548152906001019060200180831161036357829003601f168201915b5050505050815260200160028201805461039990611e59565b80601f01602080910402602001604051908101604052809291908181526020018280546103c590611e59565b80156104125780601f106103e757610100808354040283529160200191610412565b820191906000526020600020905b8154815290600101906020018083116103f557829003601f168201915b505050505081525050828281518110610454577f4e487b7100000000000000000000000000000000000000000000000000000000600052603260045260246000fd5b6020026020010181905250808061046a90611ebc565b9150506102c5565b508091505090565b6040518060c0016040528060005481526020018781526020018681526020018581526020018481526020013373ffffffffffffffffffffffffffffffffffffffff1681525060036000805481526020019081526020016000206000820151816000015560208201518160010190805190602001906104f992919061140e565b50604082015181600201908051906020019061051692919061140e565b50606082015181600301908051906020019061053392919061140e565b50608082015181600401908051906020019061055092919061140e565b5060a08201518160050160006101000a81548173ffffffffffffffffffffffffffffffffffffffff021916908373ffffffffffffffffffffffffffffffffffffffff1602179055509050506000808154809291906105ad90611ebc565b91905055507f8df18773a2005953fa6e476f99544923c3e7d117164778d88699a175861b6882600054878787876040516105eb959493929190611bfa565b60405180910390a16105fd828261131b565b505050505050565b806003600084815260200190815260200160002060050160006101000a81548173ffffffffffffffffffffffffffffffffffffffff021916908373ffffffffffffffffffffffffffffffffffffffff1602179055507fbc3216e66db8f3040eeaf4c46c18258bd0e6219c0e4c3a741caa1330e3224c2c828260405161068b929190611b5c565b60405180910390a15050565b806003600084815260200190815260200160002060040190805190602001906106c192919061140e565b507f4c35ce06554f93a70249e87c31dd8b29b9d2a86eaa4afd6aa25648c614380ffb82826040516106f3929190611b85565b60405180910390a15050565b600360205280600052604060002060009150905080600001549080600101805461072890611e59565b80601f016020809104026020016040519081016040528092919081815260200182805461075490611e59565b80156107a15780601f10610776576101008083540402835291602001916107a1565b820191906000526020600020905b81548152906001019060200180831161078457829003601f168201915b5050505050908060020180546107b690611e59565b80601f01602080910402602001604051908101604052809291908181526020018280546107e290611e59565b801561082f5780601f106108045761010080835404028352916020019161082f565b820191906000526020600020905b81548152906001019060200180831161081257829003601f168201915b50505050509080600301805461084490611e59565b80601f016020809104026020016040519081016040528092919081815260200182805461087090611e59565b80156108bd5780601f10610892576101008083540402835291602001916108bd565b820191906000526020600020905b8154815290600101906020018083116108a057829003601f168201915b5050505050908060040180546108d290611e59565b80601f01602080910402602001604051908101604052809291908181526020018280546108fe90611e59565b801561094b5780601f106109205761010080835404028352916020019161094b565b820191906000526020600020905b81548152906001019060200180831161092e57829003601f168201915b5050505050908060050160009054906101000a900473ffffffffffffffffffffffffffffffffffffffff16905086565b60608060606003600085815260200190815260200160002060010160036000868152602001908152602001600020600201600360008781526020019081526020016000206003018280546109ce90611e59565b80601f01602080910402602001604051908101604052809291908181526020018280546109fa90611e59565b8015610a475780601f10610a1c57610100808354040283529160200191610a47565b820191906000526020600020905b815481529060010190602001808311610a2a57829003601f168201915b50505050509250818054610a5a90611e59565b80601f0160208091040260200160405190810160405280929190818152602001828054610a8690611e59565b8015610ad35780601f10610aa857610100808354040283529160200191610ad3565b820191906000526020600020905b815481529060010190602001808311610ab657829003601f168201915b50505050509150808054610ae690611e59565b80601f0160208091040260200160405190810160405280929190818152602001828054610b1290611e59565b8015610b5f5780601f10610b3457610100808354040283529160200191610b5f565b820191906000526020600020905b815481529060010190602001808311610b4257829003601f168201915b505050505090509250925092509193909250565b6060806004600084815260200190815260200160002060010160046000858152602001908152602001600020600201818054610bae90611e59565b80601f0160208091040260200160405190810160405280929190818152602001828054610bda90611e59565b8015610c275780601f10610bfc57610100808354040283529160200191610c27565b820191906000526020600020905b815481529060010190602001808311610c0a57829003601f168201915b50505050509150808054610c3a90611e59565b80601f0160208091040260200160405190810160405280929190818152602001828054610c6690611e59565b8015610cb35780601f10610c8857610100808354040283529160200191610cb3565b820191906000526020600020905b815481529060010190602001808311610c9657829003601f168201915b5050505050905091509150915091565b600260009054906101000a900473ffffffffffffffffffffffffffffffffffffffff166003600083815260200190815260200160002060050160006101000a81548173ffffffffffffffffffffffffffffffffffffffff021916908373ffffffffffffffffffffffffffffffffffffffff1602179055507f7e772827f3f971b68b17586556bbcce227851f8ece0c5fafc9d2c8d64c34ec4581600260009054906101000a900473ffffffffffffffffffffffffffffffffffffffff16604051610d8d929190611b5c565b60405180910390a150565b81600460008581526020019081526020016000206001019080519060200190610dc292919061140e565b5080600460008581526020019081526020016000206002019080519060200190610ded92919061140e565b507f4ae7dc27b19a98a7c90893edc6b1cf2de7a50246cfc00ae8521d2a2aa375c50c838383604051610e2193929190611bb5565b60405180910390a1505050565b6004602052806000526040600020600091509050806000015490806001018054610e5790611e59565b80601f0160208091040260200160405190810160405280929190818152602001828054610e8390611e59565b8015610ed05780601f10610ea557610100808354040283529160200191610ed0565b820191906000526020600020905b815481529060010190602001808311610eb357829003601f168201915b505050505090806002018054610ee590611e59565b80601f0160208091040260200160405190810160405280929190818152602001828054610f1190611e59565b8015610f5e5780601f10610f3357610100808354040283529160200191610f5e565b820191906000526020600020905b815481529060010190602001808311610f4157829003601f168201915b5050505050905083565b60606000805467ffffffffffffffff811115610fad577f4e487b7100000000000000000000000000000000000000000000000000000000600052604160045260246000fd5b604051908082528060200260200182016040528015610fe657816020015b610fd3611494565b815260200190600190039081610fcb5790505b50905060005b60005481101561131357600360008281526020019081526020016000206040518060c00160405290816000820154815260200160018201805461102e90611e59565b80601f016020809104026020016040519081016040528092919081815260200182805461105a90611e59565b80156110a75780601f1061107c576101008083540402835291602001916110a7565b820191906000526020600020905b81548152906001019060200180831161108a57829003601f168201915b505050505081526020016002820180546110c090611e59565b80601f01602080910402602001604051908101604052809291908181526020018280546110ec90611e59565b80156111395780601f1061110e57610100808354040283529160200191611139565b820191906000526020600020905b81548152906001019060200180831161111c57829003601f168201915b5050505050815260200160038201805461115290611e59565b80601f016020809104026020016040519081016040528092919081815260200182805461117e90611e59565b80156111cb5780601f106111a0576101008083540402835291602001916111cb565b820191906000526020600020905b8154815290600101906020018083116111ae57829003601f168201915b505050505081526020016004820180546111e490611e59565b80601f016020809104026020016040519081016040528092919081815260200182805461121090611e59565b801561125d5780601f106112325761010080835404028352916020019161125d565b820191906000526020600020905b81548152906001019060200180831161124057829003601f168201915b505050505081526020016005820160009054906101000a900473ffffffffffffffffffffffffffffffffffffffff1673ffffffffffffffffffffffffffffffffffffffff1673ffffffffffffffffffffffffffffffffffffffff16815250508282815181106112f5577f4e487b7100000000000000000000000000000000000000000000000000000000600052603260045260246000fd5b6020026020010181905250808061130b90611ebc565b915050610fec565b508091505090565b604051806060016040528060005481526020018381526020018281525060046000600154815260200190815260200160002060008201518160000155602082015181600101908051906020019061137392919061140e565b50604082015181600201908051906020019061139092919061140e565b50905050600160008154809291906113a790611ebc565b91905055507fd7507c7b4570e3b0d6255af12a112134104969ddd270d9f9dd8cb5242873504860005483836040516113e193929190611bb5565b60405180910390a15050565b60405180606001604052806000815260200160608152602001606081525090565b82805461141a90611e59565b90600052602060002090601f01602090048101928261143c5760008555611483565b82601f1061145557805160ff1916838001178555611483565b82800160010185558215611483579182015b82811115611482578251825591602001919060010190611467565b5b50905061149091906114e0565b5090565b6040518060c001604052806000815260200160608152602001606081526020016060815260200160608152602001600073ffffffffffffffffffffffffffffffffffffffff1681525090565b5b808211156114f95760008160009055506001016114e1565b5090565b600061151061150b84611d0b565b611ce6565b90508281526020810184848401111561152857600080fd5b611533848285611e17565b509392505050565b60008135905061154a81611fa3565b92915050565b600082601f83011261156157600080fd5b81356115718482602086016114fd565b91505092915050565b60008135905061158981611fba565b92915050565b60008060008060008060c087890312156115a857600080fd5b600087013567ffffffffffffffff8111156115c257600080fd5b6115ce89828a01611550565b965050602087013567ffffffffffffffff8111156115eb57600080fd5b6115f789828a01611550565b955050604087013567ffffffffffffffff81111561161457600080fd5b61162089828a01611550565b945050606087013567ffffffffffffffff81111561163d57600080fd5b61164989828a01611550565b935050608087013567ffffffffffffffff81111561166657600080fd5b61167289828a01611550565b92505060a087013567ffffffffffffffff81111561168f57600080fd5b61169b89828a01611550565b9150509295509295509295565b6000602082840312156116ba57600080fd5b60006116c88482850161157a565b91505092915050565b600080604083850312156116e457600080fd5b60006116f28582860161157a565b92505060206117038582860161153b565b9150509250929050565b6000806040838503121561172057600080fd5b600061172e8582860161157a565b925050602083013567ffffffffffffffff81111561174b57600080fd5b61175785828601611550565b9150509250929050565b60008060006060848603121561177657600080fd5b60006117848682870161157a565b935050602084013567ffffffffffffffff8111156117a157600080fd5b6117ad86828701611550565b925050604084013567ffffffffffffffff8111156117ca57600080fd5b6117d686828701611550565b9150509250925092565b60006117ec8383611982565b905092915050565b60006118008383611a20565b905092915050565b61181181611ddb565b82525050565b61182081611ddb565b82525050565b600061183182611d5c565b61183b8185611d97565b93508360208202850161184d85611d3c565b8060005b85811015611889578484038952815161186a85826117e0565b945061187583611d7d565b925060208a01995050600181019050611851565b50829750879550505050505092915050565b60006118a682611d67565b6118b08185611da8565b9350836020820285016118c285611d4c565b8060005b858110156118fe57848403895281516118df85826117f4565b94506118ea83611d8a565b925060208a019950506001810190506118c6565b50829750879550505050505092915050565b600061191b82611d72565b6119258185611db9565b9350611935818560208601611e26565b61193e81611f92565b840191505092915050565b600061195482611d72565b61195e8185611dca565b935061196e818560208601611e26565b61197781611f92565b840191505092915050565b600060c08301600083015161199a6000860182611a77565b50602083015184820360208601526119b28282611910565b915050604083015184820360408601526119cc8282611910565b915050606083015184820360608601526119e68282611910565b91505060808301518482036080860152611a008282611910565b91505060a0830151611a1560a0860182611808565b508091505092915050565b6000606083016000830151611a386000860182611a77565b5060208301518482036020860152611a508282611910565b91505060408301518482036040860152611a6a8282611910565b9150508091505092915050565b611a8081611e0d565b82525050565b611a8f81611e0d565b82525050565b60006020820190508181036000830152611aaf8184611826565b905092915050565b60006020820190508181036000830152611ad1818461189b565b905092915050565b60006040820190508181036000830152611af38185611949565b90508181036020830152611b078184611949565b90509392505050565b60006060820190508181036000830152611b2a8186611949565b90508181036020830152611b3e8185611949565b90508181036040830152611b528184611949565b9050949350505050565b6000604082019050611b716000830185611a86565b611b7e6020830184611817565b9392505050565b6000604082019050611b9a6000830185611a86565b8181036020830152611bac8184611949565b90509392505050565b6000606082019050611bca6000830186611a86565b8181036020830152611bdc8185611949565b90508181036040830152611bf08184611949565b9050949350505050565b600060a082019050611c0f6000830188611a86565b8181036020830152611c218187611949565b90508181036040830152611c358186611949565b90508181036060830152611c498185611949565b90508181036080830152611c5d8184611949565b90509695505050505050565b600060c082019050611c7e6000830189611a86565b8181036020830152611c908188611949565b90508181036040830152611ca48187611949565b90508181036060830152611cb88186611949565b90508181036080830152611ccc8185611949565b9050611cdb60a0830184611817565b979650505050505050565b6000611cf0611d01565b9050611cfc8282611e8b565b919050565b6000604051905090565b600067ffffffffffffffff821115611d2657611d25611f63565b5b611d2f82611f92565b9050602081019050919050565b6000819050602082019050919050565b6000819050602082019050919050565b600081519050919050565b600081519050919050565b600081519050919050565b6000602082019050919050565b6000602082019050919050565b600082825260208201905092915050565b600082825260208201905092915050565b600082825260208201905092915050565b600082825260208201905092915050565b6000611de682611ded565b9050919050565b600073ffffffffffffffffffffffffffffffffffffffff82169050919050565b6000819050919050565b82818337600083830152505050565b60005b83811015611e44578082015181840152602081019050611e29565b83811115611e53576000848401525b50505050565b60006002820490506001821680611e7157607f821691505b60208210811415611e8557611e84611f34565b5b50919050565b611e9482611f92565b810181811067ffffffffffffffff82111715611eb357611eb2611f63565b5b80604052505050565b6000611ec782611e0d565b91507fffffffffffffffffffffffffffffffffffffffffffffffffffffffffffffffff821415611efa57611ef9611f05565b5b600182019050919050565b7f4e487b7100000000000000000000000000000000000000000000000000000000600052601160045260246000fd5b7f4e487b7100000000000000000000000000000000000000000000000000000000600052602260045260246000fd5b7f4e487b7100000000000000000000000000000000000000000000000000000000600052604160045260246000fd5b6000601f19601f8301169050919050565b611fac81611ddb565b8114611fb757600080fd5b50565b611fc381611e0d565b8114611fce57600080fd5b5056fea2646970667358221220f7f03ce7ee9da0fbadfb18726a9eb2028abc20022c5def5222e15650578997ae64736f6c63430008040033",
  "immutableReferences": {},
  "source": "// SPDX-License-Identifier: MIT\npragma solidity ^0.8.4;\npragma experimental ABIEncoderV2;\n\ncontract BikeContract {\n\n  uint private bikeCounter = 0;\n  uint private ownerCounter = 0;\n  address private emptyAddress = 0x0000000000000000000000000000000000000000;\n\n  struct bikeDetails {\n    uint bikeID;\n    string make;\n    string model;\n    string frame;\n    string details;\n    address user_address;\n  }\n\n  struct ownerDetails {\n    uint ownerID;\n    string name;\n    string email;\n  }\n\n  mapping(uint => bikeDetails) public bikes;\n\n  mapping(uint => ownerDetails) public owner;\n\n  event BikeCreated(\n    uint bikeID,\n    string make,\n    string model,\n    string frame,\n    string details\n  );\n\n  event OwnerAdded(\n    uint ownerID,\n    string name,\n    string email\n  );\n\n  event OwnerUpdated(\n    uint ownerID,\n    string name,\n    string email\n  );\n\n  event detailsAdded(\n    uint id,\n    string details\n  );\n\n  event transferDone(\n    uint ownerID,\n    address user_address\n  );\n\n  event renounceDone(\n    uint id,\n    address user_address\n  );\n\n    /* Bike functions */\n\n  function newBike(string memory _make, string memory _model, string memory _frame, string memory _details, string memory _name, string memory _email) public {\n    bikes[bikeCounter] = bikeDetails(bikeCounter, _make, _model, _frame, _details, msg.sender);\n    bikeCounter++;\n    emit BikeCreated(bikeCounter, _make, _model, _frame, _details);\n    _newOwner(_name, _email);\n  }\n\n  function showListBikeDetails() public view returns (bikeDetails[] memory) {\n    bikeDetails[] memory _bikes = new bikeDetails[](bikeCounter);\n    for (uint i = 0; i < bikeCounter; i++) {\n        _bikes[i] = bikes[i];\n    }\n    return _bikes;\n  }\n\n  function showBikeDetails(uint _bikeID) public view returns (string memory, string memory, string memory) {\n    return (bikes[_bikeID].make, bikes[_bikeID].model, bikes[_bikeID].frame);\n  }\n\n  /* Owner functions */\n\n  function _newOwner(string memory _name, string memory _email) private {\n    owner[ownerCounter] = ownerDetails(bikeCounter, _name, _email);\n    ownerCounter++;\n    emit OwnerAdded(bikeCounter, _name, _email);\n  }\n\n  function updateOwner(uint _ownerID, string memory _name, string memory _email) public {\n    owner[_ownerID].name = _name;\n    owner[_ownerID].email = _email;\n    emit OwnerUpdated(_ownerID, _name, _email);\n  }\n\n  function showListOwnerDetails() public view returns (ownerDetails[] memory) {\n    ownerDetails[] memory _owner = new ownerDetails[](ownerCounter);\n    for (uint i = 0; i < ownerCounter; i++) {\n        _owner[i] = owner[i];\n    }\n    return _owner;\n  }\n\n  function showOwnerDetails(uint _ownerID) public view returns (string memory, string memory) {\n    return (owner[_ownerID].name, owner[_ownerID].email);\n  }\n\n    /* Other functions */\n\n  function addDetails(uint _id, string memory _details) public {\n    bikes[_id].details = _details;\n    emit detailsAdded(_id, _details);\n  }\n\n  function transferOwnership(uint _id, address _newAddress) public {\n    bikes[_id].user_address = _newAddress;\n    emit transferDone(_id, _newAddress);\n  }\n\n  function renounceOwnership(uint _id) public {\n    bikes[_id].user_address = emptyAddress;\n    emit renounceDone(_id, emptyAddress);\n  }\n}",
  "sourcePath": "C:/Users/Enrico/Desktop/Projects/x20132484_HDBC_SEPOL_PROJECT/contracts/BikeContract.sol",
  "compiler": {
    "name": "solc",
    "version": "0.8.4+commit.c7e474f2.Emscripten.clang"
  },
  "schemaVersion": "3.4.1",
  "updatedAt": "2021-07-19T14:50:56.141Z",
  "networkType": "ethereum",
  "devdoc": {
    "kind": "dev",
    "methods": {},
    "version": 1
  },
  "userdoc": {
    "kind": "user",
    "methods": {},
    "version": 1
  }
}